{"contracts/SealedBidAuction.sol":{"SealedBidAuction":{"abi":[{"inputs":[],"stateMutability":"nonpayable","type":"constructor"},{"anonymous":false,"inputs":[{"indexed":true,"internalType":"uint256","name":"auctionId","type":"uint256"},{"indexed":true,"internalType":"address","name":"creator","type":"address"},{"indexed":false,"internalType":"string","name":"title","type":"string"},{"indexed":false,"internalType":"string","name":"assetType","type":"string"},{"indexed":false,"internalType":"uint256","name":"minBid","type":"uint256"},{"indexed":false,"internalType":"uint256","name":"commitDeadline","type":"uint256"},{"indexed":false,"internalType":"uint256","name":"revealDeadline","type":"uint256"}],"name":"AuctionCreated","type":"event"},{"anonymous":false,"inputs":[{"indexed":true,"internalType":"uint256","name":"auctionId","type":"uint256"},{"indexed":true,"internalType":"address","name":"winner","type":"address"},{"indexed":false,"internalType":"uint256","name":"winningBid","type":"uint256"},{"indexed":false,"internalType":"uint256","name":"pricePaid","type":"uint256"}],"name":"AuctionEnded","type":"event"},{"anonymous":false,"inputs":[{"indexed":true,"internalType":"uint256","name":"auctionId","type":"uint256"},{"indexed":true,"internalType":"address","name":"bidder","type":"address"},{"indexed":false,"internalType":"bytes32","name":"commitHash","type":"bytes32"},{"indexed":false,"internalType":"uint256","name":"deposit","type":"uint256"}],"name":"BidCommitted","type":"event"},{"anonymous":false,"inputs":[{"indexed":true,"internalType":"uint256","name":"auctionId","type":"uint256"},{"indexed":true,"internalType":"address","name":"bidder","type":"address"},{"indexed":false,"internalType":"uint256","name":"amount","type":"uint256"}],"name":"BidRevealed","type":"event"},{"anonymous":false,"inputs":[{"indexed":true,"internalType":"address","name":"by","type":"address"}],"name":"Paused","type":"event"},{"anonymous":false,"inputs":[{"indexed":true,"internalType":"uint256","name":"auctionId","type":"uint256"},{"indexed":false,"internalType":"uint256","name":"newRevealDeadline","type":"uint256"}],"name":"RevealExtended","type":"event"},{"anonymous":false,"inputs":[{"indexed":true,"internalType":"address","name":"by","type":"address"}],"name":"Unpaused","type":"event"},{"anonymous":false,"inputs":[{"indexed":true,"internalType":"address","name":"bidder","type":"address"},{"indexed":false,"internalType":"uint256","name":"amount","type":"uint256"}],"name":"Withdrawal","type":"event"},{"inputs":[{"internalType":"uint256","name":"","type":"uint256"},{"internalType":"uint256","name":"","type":"uint256"}],"name":"auctionBidders","outputs":[{"internalType":"address","name":"","type":"address"}],"stateMutability":"view","type":"function"},{"inputs":[{"internalType":"uint256","name":"","type":"uint256"}],"name":"auctions","outputs":[{"internalType":"uint256","name":"id","type":"uint256"},{"internalType":"address","name":"creator","type":"address"},{"internalType":"string","name":"title","type":"string"},{"internalType":"string","name":"description","type":"string"},{"internalType":"string","name":"assetType","type":"string"},{"internalType":"uint256","name":"minBid","type":"uint256"},{"internalType":"uint256","name":"commitDeadline","type":"uint256"},{"internalType":"uint256","name":"revealDeadline","type":"uint256"},{"internalType":"uint256","name":"antiSnipeExtension","type":"uint256"},{"internalType":"enum SealedBidAuction.AuctionPhase","name":"phase","type":"uint8"},{"internalType":"address","name":"winner","type":"address"},{"internalType":"uint256","name":"winningBid","type":"uint256"},{"internalType":"uint256","name":"secondHighestBid","type":"uint256"},{"internalType":"uint256","name":"totalCommits","type":"uint256"},{"internalType":"uint256","name":"totalReveals","type":"uint256"},{"internalType":"bool","name":"finalized","type":"bool"}],"stateMutability":"view","type":"function"},{"inputs":[{"internalType":"uint256","name":"_auctionId","type":"uint256"},{"internalType":"bytes32","name":"_commitHash","type":"bytes32"}],"name":"commitBid","outputs":[],"stateMutability":"payable","type":"function"},{"inputs":[{"internalType":"uint256","name":"","type":"uint256"},{"internalType":"address","name":"","type":"address"}],"name":"commits","outputs":[{"internalType":"bytes32","name":"hash","type":"bytes32"},{"internalType":"uint256","name":"deposit","type":"uint256"},{"internalType":"bool","name":"revealed","type":"bool"},{"internalType":"uint256","name":"revealedAmount","type":"uint256"},{"internalType":"uint256","name":"revealTimestamp","type":"uint256"}],"stateMutability":"view","type":"function"},{"inputs":[{"internalType":"uint256","name":"_bidAmount","type":"uint256"},{"internalType":"bytes32","name":"_secret","type":"bytes32"}],"name":"computeCommitHash","outputs":[{"internalType":"bytes32","name":"","type":"bytes32"}],"stateMutability":"pure","type":"function"},{"inputs":[{"internalType":"string","name":"_title","type":"string"},{"internalType":"string","name":"_description","type":"string"},{"internalType":"string","name":"_assetType","type":"string"},{"internalType":"uint256","name":"_minBid","type":"uint256"},{"internalType":"uint256","name":"_commitDuration","type":"uint256"},{"internalType":"uint256","name":"_revealDuration","type":"uint256"},{"internalType":"uint256","name":"_antiSnipeSeconds","type":"uint256"}],"name":"createAuction","outputs":[{"internalType":"uint256","name":"","type":"uint256"}],"stateMutability":"nonpayable","type":"function"},{"inputs":[{"internalType":"uint256","name":"_auctionId","type":"uint256"}],"name":"finalizeAuction","outputs":[],"stateMutability":"nonpayable","type":"function"},{"inputs":[{"internalType":"uint256","name":"_auctionId","type":"uint256"}],"name":"getAuction","outputs":[{"components":[{"internalType":"uint256","name":"id","type":"uint256"},{"internalType":"address","name":"creator","type":"address"},{"internalType":"string","name":"title","type":"string"},{"internalType":"string","name":"description","type":"string"},{"internalType":"string","name":"assetType","type":"string"},{"internalType":"uint256","name":"minBid","type":"uint256"},{"internalType":"uint256","name":"commitDeadline","type":"uint256"},{"internalType":"uint256","name":"revealDeadline","type":"uint256"},{"internalType":"uint256","name":"antiSnipeExtension","type":"uint256"},{"internalType":"enum SealedBidAuction.AuctionPhase","name":"phase","type":"uint8"},{"internalType":"address","name":"winner","type":"address"},{"internalType":"uint256","name":"winningBid","type":"uint256"},{"internalType":"uint256","name":"secondHighestBid","type":"uint256"},{"internalType":"uint256","name":"totalCommits","type":"uint256"},{"internalType":"uint256","name":"totalReveals","type":"uint256"},{"internalType":"bool","name":"finalized","type":"bool"}],"internalType":"struct SealedBidAuction.Auction","name":"","type":"tuple"}],"stateMutability":"view","type":"function"},{"inputs":[{"internalType":"uint256","name":"_auctionId","type":"uint256"}],"name":"getAuctionBidders","outputs":[{"internalType":"address[]","name":"","type":"address[]"}],"stateMutability":"view","type":"function"},{"inputs":[],"name":"getAuctionCount","outputs":[{"internalType":"uint256","name":"","type":"uint256"}],"stateMutability":"view","type":"function"},{"inputs":[{"internalType":"uint256","name":"_auctionId","type":"uint256"},{"internalType":"address","name":"_bidder","type":"address"}],"name":"getCommit","outputs":[{"components":[{"internalType":"bytes32","name":"hash","type":"bytes32"},{"internalType":"uint256","name":"deposit","type":"uint256"},{"internalType":"bool","name":"revealed","type":"bool"},{"internalType":"uint256","name":"revealedAmount","type":"uint256"},{"internalType":"uint256","name":"revealTimestamp","type":"uint256"}],"internalType":"struct SealedBidAuction.Commit","name":"","type":"tuple"}],"stateMutability":"view","type":"function"},{"inputs":[{"internalType":"uint256","name":"_auctionId","type":"uint256"}],"name":"getCurrentPhase","outputs":[{"internalType":"string","name":"","type":"string"}],"stateMutability":"view","type":"function"},{"inputs":[{"internalType":"address","name":"_user","type":"address"}],"name":"getPendingWithdrawal","outputs":[{"internalType":"uint256","name":"","type":"uint256"}],"stateMutability":"view","type":"function"},{"inputs":[],"name":"nextAuctionId","outputs":[{"internalType":"uint256","name":"","type":"uint256"}],"stateMutability":"view","type":"function"},{"inputs":[],"name":"owner","outputs":[{"internalType":"address","name":"","type":"address"}],"stateMutability":"view","type":"function"},{"inputs":[],"name":"pause","outputs":[],"stateMutability":"nonpayable","type":"function"},{"inputs":[],"name":"paused","outputs":[{"internalType":"bool","name":"","type":"bool"}],"stateMutability":"view","type":"function"},{"inputs":[{"internalType":"address","name":"","type":"address"}],"name":"pendingWithdrawals","outputs":[{"internalType":"uint256","name":"","type":"uint256"}],"stateMutability":"view","type":"function"},{"inputs":[{"internalType":"uint256","name":"_auctionId","type":"uint256"},{"internalType":"uint256","name":"_bidAmount","type":"uint256"},{"internalType":"bytes32","name":"_secret","type":"bytes32"}],"name":"revealBid","outputs":[],"stateMutability":"nonpayable","type":"function"},{"inputs":[{"internalType":"address","name":"_newOwner","type":"address"}],"name":"transferOwnership","outputs":[],"stateMutability":"nonpayable","type":"function"},{"inputs":[],"name":"unpause","outputs":[],"stateMutability":"nonpayable","type":"function"},{"inputs":[],"name":"withdraw","outputs":[],"stateMutability":"nonpayable","type":"function"}],"evm":{"bytecode":{"linkReferences":{},"object":"6080806040523461003257600080546001600160a81b0319163360ff60a01b191617815560015561205590816100388239f35b600080fdfe6080604052600436101561001257600080fd5b60003560e01c80630f715f1d14611b405780633ccfd60b14611a2f5780633f4ba83a146119d55780634d380a0d14611593578063571a26a014611459578063572e85ec146114155780635c975abb146113ef57806378bd7935146111615780637ee8b2f8146101315780638456cb59146110ff578063885d68a8146110865780638da5cb5b1461105d5780639468cb6114610da15780639d730b131461066c5780639eb3d2fb14610635578063c44e66401461010e578063df2764691461057d578063e8083863146102bd578063f2f56ffe146101ed578063f2fde38b1461016b578063f3f43703146101315763fc5284821461010e57600080fd5b3461012c57600036600319011261012c576020600154604051908152f35b600080fd5b3461012c57602036600319011261012c576001600160a01b03610152611d7a565b1660005260056020526020604060002054604051908152f35b3461012c57602036600319011261012c57610184611d7a565b600054906001600160a01b039061019e3383851614611e04565b169081156101b6576001600160a01b03191617600055005b60405162461bcd60e51b815260206004820152600f60248201526e496e76616c6964206164647265737360881b6044820152606490fd5b3461012c57604036600319011261012c57610206611d90565b6000608060405161021681611c16565b8281528260208201528260408201528260608201520152600435600052600360205260406000209060018060a01b031660005260205260a0604060002060405161025f81611c16565b81549182825260018101546020830190815260ff600283015416906040840191151582526080600460038501549460608701958652015494019384526040519485525160208501525115156040840152516060830152516080820152f35b3461012c5760208060031936011261012c5760043560ff906102e760ff60005460a01c1615611e3c565b6001916102f683548310611e7d565b8160005260029060028552604060002091600783015442111561053f57600e83019283549360ff85166105065786979187918260ff19809816179055866009820160038098825416179081815560018060a01b039485809360081c168015156000146104cb57836040937fe9ba83469fc8ee4260dd274fd43b5a54f2df813ad21c4637d53084d1f3866b379584600a948960005260038d5287600020816000528d526103b988600020600b8d01548015156000146104be579889915b0154611ef4565b908161049f575b50508901541660005260058a52846000206103dc858254611ee7565b90555460081c1695015490825191825287820152a35b85600052600482526040600020936000975b61040a57005b845488101561049d578880988860005287855260406000208461042d838a611b92565b9054908b1b1c1660005285526040600020828488830154161580610491575b61045a575b50500197610404565b6000910180548661046b858c611b92565b9054908d1b1c1683526005885261048760408420918254611ee7565b9055558b82610451565b5080820154151561044c565b005b60005260058d526104b588600020918254611ee7565b905538806103c0565b50878d01549889916103b2565b50505050600091507fe9ba83469fc8ee4260dd274fd43b5a54f2df813ad21c4637d53084d1f3866b37604080518481528487820152a36103f2565b60405162461bcd60e51b8152600481018990526011602482015270105b1c9958591e48199a5b985b1a5e9959607a1b6044820152606490fd5b60405162461bcd60e51b815260048101879052601660248201527514995d99585b081c1a185cd9481b9bdd08195b99195960521b6044820152606490fd5b3461012c5760208060031936011261012c5760043560005260048152604060002060405190818382549182815201908192600052846000209060005b868282106106185786866105cf82880383611c67565b604051928392818401908285525180915260408401929160005b8281106105f857505050500390f35b83516001600160a01b0316855286955093810193928101926001016105e9565b83546001600160a01b0316855290930192600192830192016105b9565b3461012c57602061064536611da6565b6040519083820192835260408201526040815261066181611c31565b519020604051908152f35b3461012c5760e036600319011261012c576004356001600160401b03811161012c5761069c903690600401611dbc565b906024356001600160401b03811161012c576106bc903690600401611dbc565b9290916044356001600160401b03811161012c576106de903690600401611dbc565b90926106f260ff60005460a01c1615611e3c565b603c60843510610d6357603c60a43510610d255760643515610cea576001549461071b86611ec2565b60015561072a60843542611ee7565b9461076861073a60a43588611ee7565b92604051996107488b611bfa565b898b523360208c015261075c36878a611fc7565b60408c01523691611fc7565b6060890152610778368583611fc7565b608089015260643560a08901528560c08901528160e089015260c435610100890152600161012089015260006101408901526000610160890152600061018089015260006101a089015260006101c089015260006101e08901528660005260026020526040600020908851825560018060a01b0360208a0151166bffffffffffffffffffffffff60a01b60018401541617600183015560408901518051906001600160401b038211610b345781906108336002860154611bc0565b601f8111610c97575b50602090601f8311600114610c2557600092610c1a575b50508160011b916000199060031b1c19161760028301555b60608901518051906001600160401b038211610b345781906108906003860154611bc0565b601f8111610bc7575b50602090601f8311600114610b5557600092610b4a575b50508160011b916000199060031b1c19161760038301555b60808901518051906001600160401b038211610b345781906108ed6004860154611bc0565b601f8111610ae1575b50602090601f8311600114610a6f57600092610a64575b50508160011b916000199060031b1c19161760048301555b60a0890151600583015560c0890151600683015560e089015160078301556101008901516008830155610120890151946004861015610a4e576009830180546101408c01516001600160a81b031990911660ff9889161760089190911b610100600160a81b03161790556101608a0151600a8401556101808a0151600b8401556101a08a0151600c8401556101c08a0151600d8401556101e090990151600e909201805492151590951660ff19929092169190911790935560209686947fa68ef5b5ff1b03c22b0c89cee060cf196d5b9cf4715b2956d8b6872235f5600a94610a2d929091610a20906040519660a0885260a0880191611ffe565b918583038b870152611ffe565b946064356040840152606083015260808201528033940390a3604051908152f35b634e487b7160e01b600052602160045260246000fd5b015190508b8061090d565b9250600485016000526020600020906000935b601f1984168510610ac6576001945083601f19811610610aad575b505050811b016004830155610925565b015160001960f88460031b161c191690558b8080610a9d565b81810151835560209485019460019093019290910190610a82565b909150600485016000526020600020601f840160051c810160208510610b2d575b90849392915b601f830160051c82018110610b1e5750506108f6565b60008155859450600101610b08565b5080610b02565b634e487b7160e01b600052604160045260246000fd5b015190508b806108b0565b9250600385016000526020600020906000935b601f1984168510610bac576001945083601f19811610610b93575b505050811b0160038301556108c8565b015160001960f88460031b161c191690558b8080610b83565b81810151835560209485019460019093019290910190610b68565b909150600385016000526020600020601f840160051c810160208510610c13575b90849392915b601f830160051c82018110610c04575050610899565b60008155859450600101610bee565b5080610be8565b015190508b80610853565b9250600285016000526020600020906000935b601f1984168510610c7c576001945083601f19811610610c63575b505050811b01600283015561086b565b015160001960f88460031b161c191690558b8080610c53565b81810151835560209485019460019093019290910190610c38565b909150600285016000526020600020601f840160051c810160208510610ce3575b90849392915b601f830160051c82018110610cd457505061083c565b60008155859450600101610cbe565b5080610cb8565b60405162461bcd60e51b815260206004820152601360248201527204d696e20626964206d757374206265203e203606c1b6044820152606490fd5b60405162461bcd60e51b815260206004820152601660248201527514995d99585b081c1a185cd9481d1bdbc81cda1bdc9d60521b6044820152606490fd5b60405162461bcd60e51b815260206004820152601660248201527510dbdb5b5a5d081c1a185cd9481d1bdbc81cda1bdc9d60521b6044820152606490fd5b610daa36611da6565b90610dbd60ff60005460a01c1615611e3c565b610dca6001548210611e7d565b8060005260206002815260406000206006810154421161102357600981019060ff8254166004811015610a4e576001811490811561101a575b5015610fdf5760058101543410610f9a5783600052600383526040600020336000528352604060002054610f6157604051610e3d81611c16565b85815260048482013481526040830160008152610e9f6060850191600083526080860193600085528a60005260038a526040600020336000528a52604060002096518755516001870155511515600286019060ff801983541691151516179055565b51600384015551910155836000526004835260406000209081549168010000000000000000831015610b345782610edd916001600c95018155611b92565b81546001600160a01b0360039290921b91821b19163390911b179055018054610f0590611ec2565b9055805460ff81166004811015610a4e5715610f51575b505060405192835234908301527fac0361642c7caf4d76d0e2dfbe38804253aedd43a560146470da108817ceb40560403393a3005b60ff191660011790558380610f1c565b60405162461bcd60e51b8152600481018490526011602482015270105b1c9958591e4818dbdb5b5a5d1d1959607a1b6044820152606490fd5b60405162461bcd60e51b815260048101849052601960248201527f4465706f7369742062656c6f77206d696e696d756d20626964000000000000006044820152606490fd5b60405162461bcd60e51b81526004810184905260136024820152724e6f7420696e20636f6d6d697420706861736560681b6044820152606490fd5b90501586610e03565b60405162461bcd60e51b815260048101839052601260248201527110dbdb5b5a5d081c1a185cd948195b99195960721b6044820152606490fd5b3461012c57600036600319011261012c576000546040516001600160a01b039091168152602090f35b3461012c57604036600319011261012c5761109f611d90565b600435600052600360205260406000209060018060a01b031660005260205260a0604060002080549060018101549060ff600282015416600460038301549201549260405194855260208501521515604084015260608301526080820152f35b3461012c57600036600319011261012c57600054611127336001600160a01b03831614611e04565b60ff60a01b1916600160a01b17600090815533907f62e78cea01bee320cd4e420270b5ea74000d11b0c9f74754ebdbfc544b05a2589080a2005b3461012c57602036600319011261012c5760043560006101e060405161118681611bfa565b82815282602082015260606040820152606080820152606060808201528260a08201528260c08201528260e08201528261010082015282610120820152826101408201528261016082015282610180820152826101a0820152826101c082015201526111f56001548210611e7d565b600052600260205260406000206040519061120f82611bfa565b8054825260018101546001600160a01b0316602083015261123260028201611c88565b604083015261124360038201611c88565b606083015261125460048201611c88565b6080830152600581015460a0830152600681015460c0830152600781015460e083015260088101546101008301526009810154600460ff82161015610a4e5760ff918183600e931661012086015260018060a01b039060081c16610140850152600a810154610160850152600b810154610180850152600c8101546101a0850152600d8101546101c085015201541615156101e08201526040518091602082528051602083015260018060a01b0360208201511660408301526101e061135f61132e60408401516102006060870152610220860190611d2d565b61134a606085015191601f199283888303016080890152611d2d565b906080850151908683030160a0870152611d2d565b9160a081015160c085015260c081015160e085015260e081015161010085015261010081015161012085015261139f610120820151610140860190611d6d565b60018060a01b03610140820151166101608501526101608101516101808501526101808101516101a08501526101a08101516101c08501526101c081015182850152015115156102008301520390f35b3461012c57600036600319011261012c57602060ff60005460a01c166040519015158152f35b3461012c57602036600319011261012c5761145561144160043561143c6001548210611e7d565b611f01565b604051918291602083526020830190611d2d565b0390f35b3461012c57602036600319011261012c5760043560005260026020526040600020805490600160a01b60019003600182015416906002810161149a90611c88565b6114a660038301611c88565b916114b360048201611c88565b92600582015493600683015460078401546008850154600986015491600a87015493600b88015495600c89015497600d8a015499600e015460ff169a6040519e8f9e8f9061020092825260208201528160408201520161151291611d2d565b8d810360608f015261152391611d2d565b8c810360808e015261153491611d2d565b9960a08c015260c08b015260e08a0152610100890152610120880160ff82169061155d91611d6d565b60081c6001600160a01b03166101408801526101608701526101808601526101a08501526101c084015215156101e08301520390f35b3461012c57606036600319011261012c576004356024908135916044906115c260ff60005460a01c1615611e3c565b6115cf6001548410611e7d565b8260005260209160028352604060002090600384526040600020336000528452604060002090600683015442111561199a5760078301938454421161196357825492831561192e576002810180549360ff85166118f95760058701548b106118c35760018301958b875410611888576040518a8101908d8252833560408201526040815261165c81611c31565b519020036118465750600160ff19809516179055886003820155600442910155600d840161168a8154611ec2565b9055600984019182549160ff8316906004821015611832575093879694936008938a979360017f86d2fbc9069d34216ebc65b38ce840528d3f8cac0c86d2aaa7ab6a9db8bc35d39b9714611825575b50508a600a8401805482116000146117d7578054600b86015555805461172c9250841c6001600160a01b03168061179f575b508054610100600160a81b0319163360081b610100600160a81b0316179055565b0154918215158061178b575b61174c575b505050506040519384523393a3005b6117787ffc67c3c4ed742dbc67b83af687e5aad503989794d43c608ae56fcd1654dbf9ca938254611ee7565b809155604051908152a28285828161173d565b506078611799428354611ef4565b10611738565b87600052600386526040600020906000528552600160406000200154600586526117cf6040600020918254611ee7565b90558b61170b565b509050600b83018054821160001461180a57555433600052600584526118036040600020918254611ee7565b905561172c565b50505433600052600584526118036040600020918254611ee7565b1660021781558b806116d9565b634e487b7160e01b60009081526021600452fd5b887f48617368206d69736d61746368202d20696e76616c69642072657665616c0000606492601e876040519462461bcd60e51b86526004860152840152820152fd5b60405162461bcd60e51b8152600481018b90526015818701527411195c1bdcda5d081b195cdcc81d1a185b88189a59605a1b81840152606490fd5b88704269642062656c6f77206d696e696d756d60781b6064926011876040519462461bcd60e51b86526004860152840152820152fd5b886f105b1c9958591e481c995d99585b195960821b6064926010876040519462461bcd60e51b86526004860152840152820152fd5b60405162461bcd60e51b815260048101889052600f818401526e139bc818dbdb5b5a5d08199bdd5b99608a1b81850152606490fd5b7114995d99585b081c1a185cd948195b99195960721b606492601288936040519462461bcd60e51b86526004860152840152820152fd5b847510dbdb5b5a5d081c1a185cd9481b9bdd08195b99195960521b6064926016876040519462461bcd60e51b86526004860152840152820152fd5b3461012c57600036600319011261012c576000546119fd336001600160a01b03831614611e04565b60ff60a01b1916600055337f5db9ee0a495bf2e6ff9c91a7834c1ba4fdd244a5e8aa4e537bd38aeae4b073aa600080a2005b3461012c57600036600319011261012c5733600052602060058152604060002054908115611b0657336000526005815260006040812055600080808085335af13d15611b01573d611a7f81611de9565b90611a8d6040519283611c67565b81526000833d92013e5b15611ac9577f7fcf532c15f0a6db0bd6d0e038bea71d30d808c7d98cb3bf7268a95bf5081b65906040519283523392a2005b6064906040519062461bcd60e51b82526004820152601160248201527015da5d1a191c985dd85b0819985a5b1959607a1b6044820152fd5b611a97565b6064906040519062461bcd60e51b8252600482015260136024820152724e6f7468696e6720746f20776974686472617760681b6044820152fd5b3461012c57604036600319011261012c5760243560043560005260046020526040600020805482101561012c57602091611b7991611b92565b905460405160039290921b1c6001600160a01b03168152f35b8054821015611baa5760005260206000200190600090565b634e487b7160e01b600052603260045260246000fd5b90600182811c92168015611bf0575b6020831014611bda57565b634e487b7160e01b600052602260045260246000fd5b91607f1691611bcf565b61020081019081106001600160401b03821117610b3457604052565b60a081019081106001600160401b03821117610b3457604052565b606081019081106001600160401b03821117610b3457604052565b604081019081106001600160401b03821117610b3457604052565b90601f801991011681019081106001600160401b03821117610b3457604052565b90604051918260008254611c9b81611bc0565b90818452602094600191600181169081600014611d0b5750600114611ccc575b505050611cca92500383611c67565b565b600090815285812095935091905b818310611cf3575050611cca9350820101388080611cbb565b85548884018501529485019487945091830191611cda565b92505050611cca94925060ff191682840152151560051b820101388080611cbb565b919082519283825260005b848110611d59575050826000602080949584010152601f8019910116010190565b602081830181015184830182015201611d38565b906004821015610a4e5752565b600435906001600160a01b038216820361012c57565b602435906001600160a01b038216820361012c57565b604090600319011261012c576004359060243590565b9181601f8401121561012c578235916001600160401b03831161012c576020838186019501011161012c57565b6001600160401b038111610b3457601f01601f191660200190565b15611e0b57565b60405162461bcd60e51b81526020600482015260096024820152682737ba1037bbb732b960b91b6044820152606490fd5b15611e4357565b60405162461bcd60e51b815260206004820152601260248201527110dbdb9d1c9858dd081a5cc81c185d5cd95960721b6044820152606490fd5b15611e8457565b60405162461bcd60e51b8152602060048201526016602482015275105d58dd1a5bdb88191bd95cc81b9bdd08195e1a5cdd60521b6044820152606490fd5b6000198114611ed15760010190565b634e487b7160e01b600052601160045260246000fd5b91908201809211611ed157565b91908203918211611ed157565b6000526002602052604060002060ff600e82015416611fa5576006810154421115611f825760070154421115611f6057604051611f3d81611c4c565b60138152722832b73234b733a334b730b634bd30ba34b7b760691b602082015290565b604051611f6c81611c4c565b600681526514995d99585b60d21b602082015290565b50604051611f8f81611c4c565b600681526510dbdb5b5a5d60d21b602082015290565b50604051611fb281611c4c565b6005815264115b99195960da1b602082015290565b929192611fd382611de9565b91611fe16040519384611c67565b82948184528183011161012c578281602093846000960137010152565b908060209392818452848401376000828201840152601f01601f191601019056fea26469706673582212202e37510d8dc1be41a71a8436ea7f15af27f01acef142512ce3c328b75ab19e2b64736f6c63430008180033","opcodes":"PUSH1 0x80 DUP1 PUSH1 0x40 MSTORE CALLVALUE PUSH2 0x32 JUMPI PUSH1 0x0 DUP1 SLOAD PUSH1 0x1 PUSH1 0x1 PUSH1 0xA8 SHL SUB NOT AND CALLER PUSH1 0xFF PUSH1 0xA0 SHL NOT AND OR DUP2 SSTORE PUSH1 0x1 SSTORE PUSH2 0x2055 SWAP1 DUP2 PUSH2 0x38 DUP3 CODECOPY RETURN JUMPDEST PUSH1 0x0 DUP1 REVERT INVALID PUSH1 0x80 PUSH1 0x40 MSTORE PUSH1 0x4 CALLDATASIZE LT ISZERO PUSH2 0x12 JUMPI PUSH1 0x0 DUP1 REVERT JUMPDEST PUSH1 0x0 CALLDATALOAD PUSH1 0xE0 SHR DUP1 PUSH4 0xF715F1D EQ PUSH2 0x1B40 JUMPI DUP1 PUSH4 0x3CCFD60B EQ PUSH2 0x1A2F JUMPI DUP1 PUSH4 0x3F4BA83A EQ PUSH2 0x19D5 JUMPI DUP1 PUSH4 0x4D380A0D EQ PUSH2 0x1593 JUMPI DUP1 PUSH4 0x571A26A0 EQ PUSH2 0x1459 JUMPI DUP1 PUSH4 0x572E85EC EQ PUSH2 0x1415 JUMPI DUP1 PUSH4 0x5C975ABB EQ PUSH2 0x13EF JUMPI DUP1 PUSH4 0x78BD7935 EQ PUSH2 0x1161 JUMPI DUP1 PUSH4 0x7EE8B2F8 EQ PUSH2 0x131 JUMPI DUP1 PUSH4 0x8456CB59 EQ PUSH2 0x10FF JUMPI DUP1 PUSH4 0x885D68A8 EQ PUSH2 0x1086 JUMPI DUP1 PUSH4 0x8DA5CB5B EQ PUSH2 0x105D JUMPI DUP1 PUSH4 0x9468CB61 EQ PUSH2 0xDA1 JUMPI DUP1 PUSH4 0x9D730B13 EQ PUSH2 0x66C JUMPI DUP1 PUSH4 0x9EB3D2FB EQ PUSH2 0x635 JUMPI DUP1 PUSH4 0xC44E6640 EQ PUSH2 0x10E JUMPI DUP1 PUSH4 0xDF276469 EQ PUSH2 0x57D JUMPI DUP1 PUSH4 0xE8083863 EQ PUSH2 0x2BD JUMPI DUP1 PUSH4 0xF2F56FFE EQ PUSH2 0x1ED JUMPI DUP1 PUSH4 0xF2FDE38B EQ PUSH2 0x16B JUMPI DUP1 PUSH4 0xF3F43703 EQ PUSH2 0x131 JUMPI PUSH4 0xFC528482 EQ PUSH2 0x10E JUMPI PUSH1 0x0 DUP1 REVERT JUMPDEST CALLVALUE PUSH2 0x12C JUMPI PUSH1 0x0 CALLDATASIZE PUSH1 0x3 NOT ADD SLT PUSH2 0x12C JUMPI PUSH1 0x20 PUSH1 0x1 SLOAD PUSH1 0x40 MLOAD SWAP1 DUP2 MSTORE RETURN JUMPDEST PUSH1 0x0 DUP1 REVERT JUMPDEST CALLVALUE PUSH2 0x12C JUMPI PUSH1 0x20 CALLDATASIZE PUSH1 0x3 NOT ADD SLT PUSH2 0x12C JUMPI PUSH1 0x1 PUSH1 0x1 PUSH1 0xA0 SHL SUB PUSH2 0x152 PUSH2 0x1D7A JUMP JUMPDEST AND PUSH1 0x0 MSTORE PUSH1 0x5 PUSH1 0x20 MSTORE PUSH1 0x20 PUSH1 0x40 PUSH1 0x0 KECCAK256 SLOAD PUSH1 0x40 MLOAD SWAP1 DUP2 MSTORE RETURN JUMPDEST CALLVALUE PUSH2 0x12C JUMPI PUSH1 0x20 CALLDATASIZE PUSH1 0x3 NOT ADD SLT PUSH2 0x12C JUMPI PUSH2 0x184 PUSH2 0x1D7A JUMP JUMPDEST PUSH1 0x0 SLOAD SWAP1 PUSH1 0x1 PUSH1 0x1 PUSH1 0xA0 SHL SUB SWAP1 PUSH2 0x19E CALLER DUP4 DUP6 AND EQ PUSH2 0x1E04 JUMP JUMPDEST AND SWAP1 DUP2 ISZERO PUSH2 0x1B6 JUMPI PUSH1 0x1 PUSH1 0x1 PUSH1 0xA0 SHL SUB NOT AND OR PUSH1 0x0 SSTORE STOP JUMPDEST PUSH1 0x40 MLOAD PUSH3 0x461BCD PUSH1 0xE5 SHL DUP2 MSTORE PUSH1 0x20 PUSH1 0x4 DUP3 ADD MSTORE PUSH1 0xF PUSH1 0x24 DUP3 ADD MSTORE PUSH15 0x496E76616C69642061646472657373 PUSH1 0x88 SHL PUSH1 0x44 DUP3 ADD MSTORE PUSH1 0x64 SWAP1 REVERT JUMPDEST CALLVALUE PUSH2 0x12C JUMPI PUSH1 0x40 CALLDATASIZE PUSH1 0x3 NOT ADD SLT PUSH2 0x12C JUMPI PUSH2 0x206 PUSH2 0x1D90 JUMP JUMPDEST PUSH1 0x0 PUSH1 0x80 PUSH1 0x40 MLOAD PUSH2 0x216 DUP2 PUSH2 0x1C16 JUMP JUMPDEST DUP3 DUP2 MSTORE DUP3 PUSH1 0x20 DUP3 ADD MSTORE DUP3 PUSH1 0x40 DUP3 ADD MSTORE DUP3 PUSH1 0x60 DUP3 ADD MSTORE ADD MSTORE PUSH1 0x4 CALLDATALOAD PUSH1 0x0 MSTORE PUSH1 0x3 PUSH1 0x20 MSTORE PUSH1 0x40 PUSH1 0x0 KECCAK256 SWAP1 PUSH1 0x1 DUP1 PUSH1 0xA0 SHL SUB AND PUSH1 0x0 MSTORE PUSH1 0x20 MSTORE PUSH1 0xA0 PUSH1 0x40 PUSH1 0x0 KECCAK256 PUSH1 0x40 MLOAD PUSH2 0x25F DUP2 PUSH2 0x1C16 JUMP JUMPDEST DUP2 SLOAD SWAP2 DUP3 DUP3 MSTORE PUSH1 0x1 DUP2 ADD SLOAD PUSH1 0x20 DUP4 ADD SWAP1 DUP2 MSTORE PUSH1 0xFF PUSH1 0x2 DUP4 ADD SLOAD AND SWAP1 PUSH1 0x40 DUP5 ADD SWAP2 ISZERO ISZERO DUP3 MSTORE PUSH1 0x80 PUSH1 0x4 PUSH1 0x3 DUP6 ADD SLOAD SWAP5 PUSH1 0x60 DUP8 ADD SWAP6 DUP7 MSTORE ADD SLOAD SWAP5 ADD SWAP4 DUP5 MSTORE PUSH1 0x40 MLOAD SWAP5 DUP6 MSTORE MLOAD PUSH1 0x20 DUP6 ADD MSTORE MLOAD ISZERO ISZERO PUSH1 0x40 DUP5 ADD MSTORE MLOAD PUSH1 0x60 DUP4 ADD MSTORE MLOAD PUSH1 0x80 DUP3 ADD MSTORE RETURN JUMPDEST CALLVALUE PUSH2 0x12C JUMPI PUSH1 0x20 DUP1 PUSH1 0x3 NOT CALLDATASIZE ADD SLT PUSH2 0x12C JUMPI PUSH1 0x4 CALLDATALOAD PUSH1 0xFF SWAP1 PUSH2 0x2E7 PUSH1 0xFF PUSH1 0x0 SLOAD PUSH1 0xA0 SHR AND ISZERO PUSH2 0x1E3C JUMP JUMPDEST PUSH1 0x1 SWAP2 PUSH2 0x2F6 DUP4 SLOAD DUP4 LT PUSH2 0x1E7D JUMP JUMPDEST DUP2 PUSH1 0x0 MSTORE PUSH1 0x2 SWAP1 PUSH1 0x2 DUP6 MSTORE PUSH1 0x40 PUSH1 0x0 KECCAK256 SWAP2 PUSH1 0x7 DUP4 ADD SLOAD TIMESTAMP GT ISZERO PUSH2 0x53F JUMPI PUSH1 0xE DUP4 ADD SWAP3 DUP4 SLOAD SWAP4 PUSH1 0xFF DUP6 AND PUSH2 0x506 JUMPI DUP7 SWAP8 SWAP2 DUP8 SWAP2 DUP3 PUSH1 0xFF NOT DUP1 SWAP9 AND OR SWAP1 SSTORE DUP7 PUSH1 0x9 DUP3 ADD PUSH1 0x3 DUP1 SWAP9 DUP3 SLOAD AND OR SWAP1 DUP2 DUP2 SSTORE PUSH1 0x1 DUP1 PUSH1 0xA0 SHL SUB SWAP5 DUP6 DUP1 SWAP4 PUSH1 0x8 SHR AND DUP1 ISZERO ISZERO PUSH1 0x0 EQ PUSH2 0x4CB JUMPI DUP4 PUSH1 0x40 SWAP4 PUSH32 0xE9BA83469FC8EE4260DD274FD43B5A54F2DF813AD21C4637D53084D1F3866B37 SWAP6 DUP5 PUSH1 0xA SWAP5 DUP10 PUSH1 0x0 MSTORE PUSH1 0x3 DUP14 MSTORE DUP8 PUSH1 0x0 KECCAK256 DUP2 PUSH1 0x0 MSTORE DUP14 MSTORE PUSH2 0x3B9 DUP9 PUSH1 0x0 KECCAK256 PUSH1 0xB DUP14 ADD SLOAD DUP1 ISZERO ISZERO PUSH1 0x0 EQ PUSH2 0x4BE JUMPI SWAP9 DUP10 SWAP2 JUMPDEST ADD SLOAD PUSH2 0x1EF4 JUMP JUMPDEST SWAP1 DUP2 PUSH2 0x49F JUMPI JUMPDEST POP POP DUP10 ADD SLOAD AND PUSH1 0x0 MSTORE PUSH1 0x5 DUP11 MSTORE DUP5 PUSH1 0x0 KECCAK256 PUSH2 0x3DC DUP6 DUP3 SLOAD PUSH2 0x1EE7 JUMP JUMPDEST SWAP1 SSTORE SLOAD PUSH1 0x8 SHR AND SWAP6 ADD SLOAD SWAP1 DUP3 MLOAD SWAP2 DUP3 MSTORE DUP8 DUP3 ADD MSTORE LOG3 JUMPDEST DUP6 PUSH1 0x0 MSTORE PUSH1 0x4 DUP3 MSTORE PUSH1 0x40 PUSH1 0x0 KECCAK256 SWAP4 PUSH1 0x0 SWAP8 JUMPDEST PUSH2 0x40A JUMPI STOP JUMPDEST DUP5 SLOAD DUP9 LT ISZERO PUSH2 0x49D JUMPI DUP9 DUP1 SWAP9 DUP9 PUSH1 0x0 MSTORE DUP8 DUP6 MSTORE PUSH1 0x40 PUSH1 0x0 KECCAK256 DUP5 PUSH2 0x42D DUP4 DUP11 PUSH2 0x1B92 JUMP JUMPDEST SWAP1 SLOAD SWAP1 DUP12 SHL SHR AND PUSH1 0x0 MSTORE DUP6 MSTORE PUSH1 0x40 PUSH1 0x0 KECCAK256 DUP3 DUP5 DUP9 DUP4 ADD SLOAD AND ISZERO DUP1 PUSH2 0x491 JUMPI JUMPDEST PUSH2 0x45A JUMPI JUMPDEST POP POP ADD SWAP8 PUSH2 0x404 JUMP JUMPDEST PUSH1 0x0 SWAP2 ADD DUP1 SLOAD DUP7 PUSH2 0x46B DUP6 DUP13 PUSH2 0x1B92 JUMP JUMPDEST SWAP1 SLOAD SWAP1 DUP14 SHL SHR AND DUP4 MSTORE PUSH1 0x5 DUP9 MSTORE PUSH2 0x487 PUSH1 0x40 DUP5 KECCAK256 SWAP2 DUP3 SLOAD PUSH2 0x1EE7 JUMP JUMPDEST SWAP1 SSTORE SSTORE DUP12 DUP3 PUSH2 0x451 JUMP JUMPDEST POP DUP1 DUP3 ADD SLOAD ISZERO ISZERO PUSH2 0x44C JUMP JUMPDEST STOP JUMPDEST PUSH1 0x0 MSTORE PUSH1 0x5 DUP14 MSTORE PUSH2 0x4B5 DUP9 PUSH1 0x0 KECCAK256 SWAP2 DUP3 SLOAD PUSH2 0x1EE7 JUMP JUMPDEST SWAP1 SSTORE CODESIZE DUP1 PUSH2 0x3C0 JUMP JUMPDEST POP DUP8 DUP14 ADD SLOAD SWAP9 DUP10 SWAP2 PUSH2 0x3B2 JUMP JUMPDEST POP POP POP POP PUSH1 0x0 SWAP2 POP PUSH32 0xE9BA83469FC8EE4260DD274FD43B5A54F2DF813AD21C4637D53084D1F3866B37 PUSH1 0x40 DUP1 MLOAD DUP5 DUP2 MSTORE DUP5 DUP8 DUP3 ADD MSTORE LOG3 PUSH2 0x3F2 JUMP JUMPDEST PUSH1 0x40 MLOAD PUSH3 0x461BCD PUSH1 0xE5 SHL DUP2 MSTORE PUSH1 0x4 DUP2 ADD DUP10 SWAP1 MSTORE PUSH1 0x11 PUSH1 0x24 DUP3 ADD MSTORE PUSH17 0x105B1C9958591E48199A5B985B1A5E9959 PUSH1 0x7A SHL PUSH1 0x44 DUP3 ADD MSTORE PUSH1 0x64 SWAP1 REVERT JUMPDEST PUSH1 0x40 MLOAD PUSH3 0x461BCD PUSH1 0xE5 SHL DUP2 MSTORE PUSH1 0x4 DUP2 ADD DUP8 SWAP1 MSTORE PUSH1 0x16 PUSH1 0x24 DUP3 ADD MSTORE PUSH22 0x14995D99585B081C1A185CD9481B9BDD08195B991959 PUSH1 0x52 SHL PUSH1 0x44 DUP3 ADD MSTORE PUSH1 0x64 SWAP1 REVERT JUMPDEST CALLVALUE PUSH2 0x12C JUMPI PUSH1 0x20 DUP1 PUSH1 0x3 NOT CALLDATASIZE ADD SLT PUSH2 0x12C JUMPI PUSH1 0x4 CALLDATALOAD PUSH1 0x0 MSTORE PUSH1 0x4 DUP2 MSTORE PUSH1 0x40 PUSH1 0x0 KECCAK256 PUSH1 0x40 MLOAD SWAP1 DUP2 DUP4 DUP3 SLOAD SWAP2 DUP3 DUP2 MSTORE ADD SWAP1 DUP2 SWAP3 PUSH1 0x0 MSTORE DUP5 PUSH1 0x0 KECCAK256 SWAP1 PUSH1 0x0 JUMPDEST DUP7 DUP3 DUP3 LT PUSH2 0x618 JUMPI DUP7 DUP7 PUSH2 0x5CF DUP3 DUP9 SUB DUP4 PUSH2 0x1C67 JUMP JUMPDEST PUSH1 0x40 MLOAD SWAP3 DUP4 SWAP3 DUP2 DUP5 ADD SWAP1 DUP3 DUP6 MSTORE MLOAD DUP1 SWAP2 MSTORE PUSH1 0x40 DUP5 ADD SWAP3 SWAP2 PUSH1 0x0 JUMPDEST DUP3 DUP2 LT PUSH2 0x5F8 JUMPI POP POP POP POP SUB SWAP1 RETURN JUMPDEST DUP4 MLOAD PUSH1 0x1 PUSH1 0x1 PUSH1 0xA0 SHL SUB AND DUP6 MSTORE DUP7 SWAP6 POP SWAP4 DUP2 ADD SWAP4 SWAP3 DUP2 ADD SWAP3 PUSH1 0x1 ADD PUSH2 0x5E9 JUMP JUMPDEST DUP4 SLOAD PUSH1 0x1 PUSH1 0x1 PUSH1 0xA0 SHL SUB AND DUP6 MSTORE SWAP1 SWAP4 ADD SWAP3 PUSH1 0x1 SWAP3 DUP4 ADD SWAP3 ADD PUSH2 0x5B9 JUMP JUMPDEST CALLVALUE PUSH2 0x12C JUMPI PUSH1 0x20 PUSH2 0x645 CALLDATASIZE PUSH2 0x1DA6 JUMP JUMPDEST PUSH1 0x40 MLOAD SWAP1 DUP4 DUP3 ADD SWAP3 DUP4 MSTORE PUSH1 0x40 DUP3 ADD MSTORE PUSH1 0x40 DUP2 MSTORE PUSH2 0x661 DUP2 PUSH2 0x1C31 JUMP JUMPDEST MLOAD SWAP1 KECCAK256 PUSH1 0x40 MLOAD SWAP1 DUP2 MSTORE RETURN JUMPDEST CALLVALUE PUSH2 0x12C JUMPI PUSH1 0xE0 CALLDATASIZE PUSH1 0x3 NOT ADD SLT PUSH2 0x12C JUMPI PUSH1 0x4 CALLDATALOAD PUSH1 0x1 PUSH1 0x1 PUSH1 0x40 SHL SUB DUP2 GT PUSH2 0x12C JUMPI PUSH2 0x69C SWAP1 CALLDATASIZE SWAP1 PUSH1 0x4 ADD PUSH2 0x1DBC JUMP JUMPDEST SWAP1 PUSH1 0x24 CALLDATALOAD PUSH1 0x1 PUSH1 0x1 PUSH1 0x40 SHL SUB DUP2 GT PUSH2 0x12C JUMPI PUSH2 0x6BC SWAP1 CALLDATASIZE SWAP1 PUSH1 0x4 ADD PUSH2 0x1DBC JUMP JUMPDEST SWAP3 SWAP1 SWAP2 PUSH1 0x44 CALLDATALOAD PUSH1 0x1 PUSH1 0x1 PUSH1 0x40 SHL SUB DUP2 GT PUSH2 0x12C JUMPI PUSH2 0x6DE SWAP1 CALLDATASIZE SWAP1 PUSH1 0x4 ADD PUSH2 0x1DBC JUMP JUMPDEST SWAP1 SWAP3 PUSH2 0x6F2 PUSH1 0xFF PUSH1 0x0 SLOAD PUSH1 0xA0 SHR AND ISZERO PUSH2 0x1E3C JUMP JUMPDEST PUSH1 0x3C PUSH1 0x84 CALLDATALOAD LT PUSH2 0xD63 JUMPI PUSH1 0x3C PUSH1 0xA4 CALLDATALOAD LT PUSH2 0xD25 JUMPI PUSH1 0x64 CALLDATALOAD ISZERO PUSH2 0xCEA JUMPI PUSH1 0x1 SLOAD SWAP5 PUSH2 0x71B DUP7 PUSH2 0x1EC2 JUMP JUMPDEST PUSH1 0x1 SSTORE PUSH2 0x72A PUSH1 0x84 CALLDATALOAD TIMESTAMP PUSH2 0x1EE7 JUMP JUMPDEST SWAP5 PUSH2 0x768 PUSH2 0x73A PUSH1 0xA4 CALLDATALOAD DUP9 PUSH2 0x1EE7 JUMP JUMPDEST SWAP3 PUSH1 0x40 MLOAD SWAP10 PUSH2 0x748 DUP12 PUSH2 0x1BFA JUMP JUMPDEST DUP10 DUP12 MSTORE CALLER PUSH1 0x20 DUP13 ADD MSTORE PUSH2 0x75C CALLDATASIZE DUP8 DUP11 PUSH2 0x1FC7 JUMP JUMPDEST PUSH1 0x40 DUP13 ADD MSTORE CALLDATASIZE SWAP2 PUSH2 0x1FC7 JUMP JUMPDEST PUSH1 0x60 DUP10 ADD MSTORE PUSH2 0x778 CALLDATASIZE DUP6 DUP4 PUSH2 0x1FC7 JUMP JUMPDEST PUSH1 0x80 DUP10 ADD MSTORE PUSH1 0x64 CALLDATALOAD PUSH1 0xA0 DUP10 ADD MSTORE DUP6 PUSH1 0xC0 DUP10 ADD MSTORE DUP2 PUSH1 0xE0 DUP10 ADD MSTORE PUSH1 0xC4 CALLDATALOAD PUSH2 0x100 DUP10 ADD MSTORE PUSH1 0x1 PUSH2 0x120 DUP10 ADD MSTORE PUSH1 0x0 PUSH2 0x140 DUP10 ADD MSTORE PUSH1 0x0 PUSH2 0x160 DUP10 ADD MSTORE PUSH1 0x0 PUSH2 0x180 DUP10 ADD MSTORE PUSH1 0x0 PUSH2 0x1A0 DUP10 ADD MSTORE PUSH1 0x0 PUSH2 0x1C0 DUP10 ADD MSTORE PUSH1 0x0 PUSH2 0x1E0 DUP10 ADD MSTORE DUP7 PUSH1 0x0 MSTORE PUSH1 0x2 PUSH1 0x20 MSTORE PUSH1 0x40 PUSH1 0x0 KECCAK256 SWAP1 DUP9 MLOAD DUP3 SSTORE PUSH1 0x1 DUP1 PUSH1 0xA0 SHL SUB PUSH1 0x20 DUP11 ADD MLOAD AND PUSH12 0xFFFFFFFFFFFFFFFFFFFFFFFF PUSH1 0xA0 SHL PUSH1 0x1 DUP5 ADD SLOAD AND OR PUSH1 0x1 DUP4 ADD SSTORE PUSH1 0x40 DUP10 ADD MLOAD DUP1 MLOAD SWAP1 PUSH1 0x1 PUSH1 0x1 PUSH1 0x40 SHL SUB DUP3 GT PUSH2 0xB34 JUMPI DUP2 SWAP1 PUSH2 0x833 PUSH1 0x2 DUP7 ADD SLOAD PUSH2 0x1BC0 JUMP JUMPDEST PUSH1 0x1F DUP2 GT PUSH2 0xC97 JUMPI JUMPDEST POP PUSH1 0x20 SWAP1 PUSH1 0x1F DUP4 GT PUSH1 0x1 EQ PUSH2 0xC25 JUMPI PUSH1 0x0 SWAP3 PUSH2 0xC1A JUMPI JUMPDEST POP POP DUP2 PUSH1 0x1 SHL SWAP2 PUSH1 0x0 NOT SWAP1 PUSH1 0x3 SHL SHR NOT AND OR PUSH1 0x2 DUP4 ADD SSTORE JUMPDEST PUSH1 0x60 DUP10 ADD MLOAD DUP1 MLOAD SWAP1 PUSH1 0x1 PUSH1 0x1 PUSH1 0x40 SHL SUB DUP3 GT PUSH2 0xB34 JUMPI DUP2 SWAP1 PUSH2 0x890 PUSH1 0x3 DUP7 ADD SLOAD PUSH2 0x1BC0 JUMP JUMPDEST PUSH1 0x1F DUP2 GT PUSH2 0xBC7 JUMPI JUMPDEST POP PUSH1 0x20 SWAP1 PUSH1 0x1F DUP4 GT PUSH1 0x1 EQ PUSH2 0xB55 JUMPI PUSH1 0x0 SWAP3 PUSH2 0xB4A JUMPI JUMPDEST POP POP DUP2 PUSH1 0x1 SHL SWAP2 PUSH1 0x0 NOT SWAP1 PUSH1 0x3 SHL SHR NOT AND OR PUSH1 0x3 DUP4 ADD SSTORE JUMPDEST PUSH1 0x80 DUP10 ADD MLOAD DUP1 MLOAD SWAP1 PUSH1 0x1 PUSH1 0x1 PUSH1 0x40 SHL SUB DUP3 GT PUSH2 0xB34 JUMPI DUP2 SWAP1 PUSH2 0x8ED PUSH1 0x4 DUP7 ADD SLOAD PUSH2 0x1BC0 JUMP JUMPDEST PUSH1 0x1F DUP2 GT PUSH2 0xAE1 JUMPI JUMPDEST POP PUSH1 0x20 SWAP1 PUSH1 0x1F DUP4 GT PUSH1 0x1 EQ PUSH2 0xA6F JUMPI PUSH1 0x0 SWAP3 PUSH2 0xA64 JUMPI JUMPDEST POP POP DUP2 PUSH1 0x1 SHL SWAP2 PUSH1 0x0 NOT SWAP1 PUSH1 0x3 SHL SHR NOT AND OR PUSH1 0x4 DUP4 ADD SSTORE JUMPDEST PUSH1 0xA0 DUP10 ADD MLOAD PUSH1 0x5 DUP4 ADD SSTORE PUSH1 0xC0 DUP10 ADD MLOAD PUSH1 0x6 DUP4 ADD SSTORE PUSH1 0xE0 DUP10 ADD MLOAD PUSH1 0x7 DUP4 ADD SSTORE PUSH2 0x100 DUP10 ADD MLOAD PUSH1 0x8 DUP4 ADD SSTORE PUSH2 0x120 DUP10 ADD MLOAD SWAP5 PUSH1 0x4 DUP7 LT ISZERO PUSH2 0xA4E JUMPI PUSH1 0x9 DUP4 ADD DUP1 SLOAD PUSH2 0x140 DUP13 ADD MLOAD PUSH1 0x1 PUSH1 0x1 PUSH1 0xA8 SHL SUB NOT SWAP1 SWAP2 AND PUSH1 0xFF SWAP9 DUP10 AND OR PUSH1 0x8 SWAP2 SWAP1 SWAP2 SHL PUSH2 0x100 PUSH1 0x1 PUSH1 0xA8 SHL SUB AND OR SWAP1 SSTORE PUSH2 0x160 DUP11 ADD MLOAD PUSH1 0xA DUP5 ADD SSTORE PUSH2 0x180 DUP11 ADD MLOAD PUSH1 0xB DUP5 ADD SSTORE PUSH2 0x1A0 DUP11 ADD MLOAD PUSH1 0xC DUP5 ADD SSTORE PUSH2 0x1C0 DUP11 ADD MLOAD PUSH1 0xD DUP5 ADD SSTORE PUSH2 0x1E0 SWAP1 SWAP10 ADD MLOAD PUSH1 0xE SWAP1 SWAP3 ADD DUP1 SLOAD SWAP3 ISZERO ISZERO SWAP1 SWAP6 AND PUSH1 0xFF NOT SWAP3 SWAP1 SWAP3 AND SWAP2 SWAP1 SWAP2 OR SWAP1 SWAP4 SSTORE PUSH1 0x20 SWAP7 DUP7 SWAP5 PUSH32 0xA68EF5B5FF1B03C22B0C89CEE060CF196D5B9CF4715B2956D8B6872235F5600A SWAP5 PUSH2 0xA2D SWAP3 SWAP1 SWAP2 PUSH2 0xA20 SWAP1 PUSH1 0x40 MLOAD SWAP7 PUSH1 0xA0 DUP9 MSTORE PUSH1 0xA0 DUP9 ADD SWAP2 PUSH2 0x1FFE JUMP JUMPDEST SWAP2 DUP6 DUP4 SUB DUP12 DUP8 ADD MSTORE PUSH2 0x1FFE JUMP JUMPDEST SWAP5 PUSH1 0x64 CALLDATALOAD PUSH1 0x40 DUP5 ADD MSTORE PUSH1 0x60 DUP4 ADD MSTORE PUSH1 0x80 DUP3 ADD MSTORE DUP1 CALLER SWAP5 SUB SWAP1 LOG3 PUSH1 0x40 MLOAD SWAP1 DUP2 MSTORE RETURN JUMPDEST PUSH4 0x4E487B71 PUSH1 0xE0 SHL PUSH1 0x0 MSTORE PUSH1 0x21 PUSH1 0x4 MSTORE PUSH1 0x24 PUSH1 0x0 REVERT JUMPDEST ADD MLOAD SWAP1 POP DUP12 DUP1 PUSH2 0x90D JUMP JUMPDEST SWAP3 POP PUSH1 0x4 DUP6 ADD PUSH1 0x0 MSTORE PUSH1 0x20 PUSH1 0x0 KECCAK256 SWAP1 PUSH1 0x0 SWAP4 JUMPDEST PUSH1 0x1F NOT DUP5 AND DUP6 LT PUSH2 0xAC6 JUMPI PUSH1 0x1 SWAP5 POP DUP4 PUSH1 0x1F NOT DUP2 AND LT PUSH2 0xAAD JUMPI JUMPDEST POP POP POP DUP2 SHL ADD PUSH1 0x4 DUP4 ADD SSTORE PUSH2 0x925 JUMP JUMPDEST ADD MLOAD PUSH1 0x0 NOT PUSH1 0xF8 DUP5 PUSH1 0x3 SHL AND SHR NOT AND SWAP1 SSTORE DUP12 DUP1 DUP1 PUSH2 0xA9D JUMP JUMPDEST DUP2 DUP2 ADD MLOAD DUP4 SSTORE PUSH1 0x20 SWAP5 DUP6 ADD SWAP5 PUSH1 0x1 SWAP1 SWAP4 ADD SWAP3 SWAP1 SWAP2 ADD SWAP1 PUSH2 0xA82 JUMP JUMPDEST SWAP1 SWAP2 POP PUSH1 0x4 DUP6 ADD PUSH1 0x0 MSTORE PUSH1 0x20 PUSH1 0x0 KECCAK256 PUSH1 0x1F DUP5 ADD PUSH1 0x5 SHR DUP2 ADD PUSH1 0x20 DUP6 LT PUSH2 0xB2D JUMPI JUMPDEST SWAP1 DUP5 SWAP4 SWAP3 SWAP2 JUMPDEST PUSH1 0x1F DUP4 ADD PUSH1 0x5 SHR DUP3 ADD DUP2 LT PUSH2 0xB1E JUMPI POP POP PUSH2 0x8F6 JUMP JUMPDEST PUSH1 0x0 DUP2 SSTORE DUP6 SWAP5 POP PUSH1 0x1 ADD PUSH2 0xB08 JUMP JUMPDEST POP DUP1 PUSH2 0xB02 JUMP JUMPDEST PUSH4 0x4E487B71 PUSH1 0xE0 SHL PUSH1 0x0 MSTORE PUSH1 0x41 PUSH1 0x4 MSTORE PUSH1 0x24 PUSH1 0x0 REVERT JUMPDEST ADD MLOAD SWAP1 POP DUP12 DUP1 PUSH2 0x8B0 JUMP JUMPDEST SWAP3 POP PUSH1 0x3 DUP6 ADD PUSH1 0x0 MSTORE PUSH1 0x20 PUSH1 0x0 KECCAK256 SWAP1 PUSH1 0x0 SWAP4 JUMPDEST PUSH1 0x1F NOT DUP5 AND DUP6 LT PUSH2 0xBAC JUMPI PUSH1 0x1 SWAP5 POP DUP4 PUSH1 0x1F NOT DUP2 AND LT PUSH2 0xB93 JUMPI JUMPDEST POP POP POP DUP2 SHL ADD PUSH1 0x3 DUP4 ADD SSTORE PUSH2 0x8C8 JUMP JUMPDEST ADD MLOAD PUSH1 0x0 NOT PUSH1 0xF8 DUP5 PUSH1 0x3 SHL AND SHR NOT AND SWAP1 SSTORE DUP12 DUP1 DUP1 PUSH2 0xB83 JUMP JUMPDEST DUP2 DUP2 ADD MLOAD DUP4 SSTORE PUSH1 0x20 SWAP5 DUP6 ADD SWAP5 PUSH1 0x1 SWAP1 SWAP4 ADD SWAP3 SWAP1 SWAP2 ADD SWAP1 PUSH2 0xB68 JUMP JUMPDEST SWAP1 SWAP2 POP PUSH1 0x3 DUP6 ADD PUSH1 0x0 MSTORE PUSH1 0x20 PUSH1 0x0 KECCAK256 PUSH1 0x1F DUP5 ADD PUSH1 0x5 SHR DUP2 ADD PUSH1 0x20 DUP6 LT PUSH2 0xC13 JUMPI JUMPDEST SWAP1 DUP5 SWAP4 SWAP3 SWAP2 JUMPDEST PUSH1 0x1F DUP4 ADD PUSH1 0x5 SHR DUP3 ADD DUP2 LT PUSH2 0xC04 JUMPI POP POP PUSH2 0x899 JUMP JUMPDEST PUSH1 0x0 DUP2 SSTORE DUP6 SWAP5 POP PUSH1 0x1 ADD PUSH2 0xBEE JUMP JUMPDEST POP DUP1 PUSH2 0xBE8 JUMP JUMPDEST ADD MLOAD SWAP1 POP DUP12 DUP1 PUSH2 0x853 JUMP JUMPDEST SWAP3 POP PUSH1 0x2 DUP6 ADD PUSH1 0x0 MSTORE PUSH1 0x20 PUSH1 0x0 KECCAK256 SWAP1 PUSH1 0x0 SWAP4 JUMPDEST PUSH1 0x1F NOT DUP5 AND DUP6 LT PUSH2 0xC7C JUMPI PUSH1 0x1 SWAP5 POP DUP4 PUSH1 0x1F NOT DUP2 AND LT PUSH2 0xC63 JUMPI JUMPDEST POP POP POP DUP2 SHL ADD PUSH1 0x2 DUP4 ADD SSTORE PUSH2 0x86B JUMP JUMPDEST ADD MLOAD PUSH1 0x0 NOT PUSH1 0xF8 DUP5 PUSH1 0x3 SHL AND SHR NOT AND SWAP1 SSTORE DUP12 DUP1 DUP1 PUSH2 0xC53 JUMP JUMPDEST DUP2 DUP2 ADD MLOAD DUP4 SSTORE PUSH1 0x20 SWAP5 DUP6 ADD SWAP5 PUSH1 0x1 SWAP1 SWAP4 ADD SWAP3 SWAP1 SWAP2 ADD SWAP1 PUSH2 0xC38 JUMP JUMPDEST SWAP1 SWAP2 POP PUSH1 0x2 DUP6 ADD PUSH1 0x0 MSTORE PUSH1 0x20 PUSH1 0x0 KECCAK256 PUSH1 0x1F DUP5 ADD PUSH1 0x5 SHR DUP2 ADD PUSH1 0x20 DUP6 LT PUSH2 0xCE3 JUMPI JUMPDEST SWAP1 DUP5 SWAP4 SWAP3 SWAP2 JUMPDEST PUSH1 0x1F DUP4 ADD PUSH1 0x5 SHR DUP3 ADD DUP2 LT PUSH2 0xCD4 JUMPI POP POP PUSH2 0x83C JUMP JUMPDEST PUSH1 0x0 DUP2 SSTORE DUP6 SWAP5 POP PUSH1 0x1 ADD PUSH2 0xCBE JUMP JUMPDEST POP DUP1 PUSH2 0xCB8 JUMP JUMPDEST PUSH1 0x40 MLOAD PUSH3 0x461BCD PUSH1 0xE5 SHL DUP2 MSTORE PUSH1 0x20 PUSH1 0x4 DUP3 ADD MSTORE PUSH1 0x13 PUSH1 0x24 DUP3 ADD MSTORE PUSH19 0x4D696E20626964206D757374206265203E203 PUSH1 0x6C SHL PUSH1 0x44 DUP3 ADD MSTORE PUSH1 0x64 SWAP1 REVERT JUMPDEST PUSH1 0x40 MLOAD PUSH3 0x461BCD PUSH1 0xE5 SHL DUP2 MSTORE PUSH1 0x20 PUSH1 0x4 DUP3 ADD MSTORE PUSH1 0x16 PUSH1 0x24 DUP3 ADD MSTORE PUSH22 0x14995D99585B081C1A185CD9481D1BDBC81CDA1BDC9D PUSH1 0x52 SHL PUSH1 0x44 DUP3 ADD MSTORE PUSH1 0x64 SWAP1 REVERT JUMPDEST PUSH1 0x40 MLOAD PUSH3 0x461BCD PUSH1 0xE5 SHL DUP2 MSTORE PUSH1 0x20 PUSH1 0x4 DUP3 ADD MSTORE PUSH1 0x16 PUSH1 0x24 DUP3 ADD MSTORE PUSH22 0x10DBDB5B5A5D081C1A185CD9481D1BDBC81CDA1BDC9D PUSH1 0x52 SHL PUSH1 0x44 DUP3 ADD MSTORE PUSH1 0x64 SWAP1 REVERT JUMPDEST PUSH2 0xDAA CALLDATASIZE PUSH2 0x1DA6 JUMP JUMPDEST SWAP1 PUSH2 0xDBD PUSH1 0xFF PUSH1 0x0 SLOAD PUSH1 0xA0 SHR AND ISZERO PUSH2 0x1E3C JUMP JUMPDEST PUSH2 0xDCA PUSH1 0x1 SLOAD DUP3 LT PUSH2 0x1E7D JUMP JUMPDEST DUP1 PUSH1 0x0 MSTORE PUSH1 0x20 PUSH1 0x2 DUP2 MSTORE PUSH1 0x40 PUSH1 0x0 KECCAK256 PUSH1 0x6 DUP2 ADD SLOAD TIMESTAMP GT PUSH2 0x1023 JUMPI PUSH1 0x9 DUP2 ADD SWAP1 PUSH1 0xFF DUP3 SLOAD AND PUSH1 0x4 DUP2 LT ISZERO PUSH2 0xA4E JUMPI PUSH1 0x1 DUP2 EQ SWAP1 DUP2 ISZERO PUSH2 0x101A JUMPI JUMPDEST POP ISZERO PUSH2 0xFDF JUMPI PUSH1 0x5 DUP2 ADD SLOAD CALLVALUE LT PUSH2 0xF9A JUMPI DUP4 PUSH1 0x0 MSTORE PUSH1 0x3 DUP4 MSTORE PUSH1 0x40 PUSH1 0x0 KECCAK256 CALLER PUSH1 0x0 MSTORE DUP4 MSTORE PUSH1 0x40 PUSH1 0x0 KECCAK256 SLOAD PUSH2 0xF61 JUMPI PUSH1 0x40 MLOAD PUSH2 0xE3D DUP2 PUSH2 0x1C16 JUMP JUMPDEST DUP6 DUP2 MSTORE PUSH1 0x4 DUP5 DUP3 ADD CALLVALUE DUP2 MSTORE PUSH1 0x40 DUP4 ADD PUSH1 0x0 DUP2 MSTORE PUSH2 0xE9F PUSH1 0x60 DUP6 ADD SWAP2 PUSH1 0x0 DUP4 MSTORE PUSH1 0x80 DUP7 ADD SWAP4 PUSH1 0x0 DUP6 MSTORE DUP11 PUSH1 0x0 MSTORE PUSH1 0x3 DUP11 MSTORE PUSH1 0x40 PUSH1 0x0 KECCAK256 CALLER PUSH1 0x0 MSTORE DUP11 MSTORE PUSH1 0x40 PUSH1 0x0 KECCAK256 SWAP7 MLOAD DUP8 SSTORE MLOAD PUSH1 0x1 DUP8 ADD SSTORE MLOAD ISZERO ISZERO PUSH1 0x2 DUP7 ADD SWAP1 PUSH1 0xFF DUP1 NOT DUP4 SLOAD AND SWAP2 ISZERO ISZERO AND OR SWAP1 SSTORE JUMP JUMPDEST MLOAD PUSH1 0x3 DUP5 ADD SSTORE MLOAD SWAP2 ADD SSTORE DUP4 PUSH1 0x0 MSTORE PUSH1 0x4 DUP4 MSTORE PUSH1 0x40 PUSH1 0x0 KECCAK256 SWAP1 DUP2 SLOAD SWAP2 PUSH9 0x10000000000000000 DUP4 LT ISZERO PUSH2 0xB34 JUMPI DUP3 PUSH2 0xEDD SWAP2 PUSH1 0x1 PUSH1 0xC SWAP6 ADD DUP2 SSTORE PUSH2 0x1B92 JUMP JUMPDEST DUP2 SLOAD PUSH1 0x1 PUSH1 0x1 PUSH1 0xA0 SHL SUB PUSH1 0x3 SWAP3 SWAP1 SWAP3 SHL SWAP2 DUP3 SHL NOT AND CALLER SWAP1 SWAP2 SHL OR SWAP1 SSTORE ADD DUP1 SLOAD PUSH2 0xF05 SWAP1 PUSH2 0x1EC2 JUMP JUMPDEST SWAP1 SSTORE DUP1 SLOAD PUSH1 0xFF DUP2 AND PUSH1 0x4 DUP2 LT ISZERO PUSH2 0xA4E JUMPI ISZERO PUSH2 0xF51 JUMPI JUMPDEST POP POP PUSH1 0x40 MLOAD SWAP3 DUP4 MSTORE CALLVALUE SWAP1 DUP4 ADD MSTORE PUSH32 0xAC0361642C7CAF4D76D0E2DFBE38804253AEDD43A560146470DA108817CEB405 PUSH1 0x40 CALLER SWAP4 LOG3 STOP JUMPDEST PUSH1 0xFF NOT AND PUSH1 0x1 OR SWAP1 SSTORE DUP4 DUP1 PUSH2 0xF1C JUMP JUMPDEST PUSH1 0x40 MLOAD PUSH3 0x461BCD PUSH1 0xE5 SHL DUP2 MSTORE PUSH1 0x4 DUP2 ADD DUP5 SWAP1 MSTORE PUSH1 0x11 PUSH1 0x24 DUP3 ADD MSTORE PUSH17 0x105B1C9958591E4818DBDB5B5A5D1D1959 PUSH1 0x7A SHL PUSH1 0x44 DUP3 ADD MSTORE PUSH1 0x64 SWAP1 REVERT JUMPDEST PUSH1 0x40 MLOAD PUSH3 0x461BCD PUSH1 0xE5 SHL DUP2 MSTORE PUSH1 0x4 DUP2 ADD DUP5 SWAP1 MSTORE PUSH1 0x19 PUSH1 0x24 DUP3 ADD MSTORE PUSH32 0x4465706F7369742062656C6F77206D696E696D756D2062696400000000000000 PUSH1 0x44 DUP3 ADD MSTORE PUSH1 0x64 SWAP1 REVERT JUMPDEST PUSH1 0x40 MLOAD PUSH3 0x461BCD PUSH1 0xE5 SHL DUP2 MSTORE PUSH1 0x4 DUP2 ADD DUP5 SWAP1 MSTORE PUSH1 0x13 PUSH1 0x24 DUP3 ADD MSTORE PUSH19 0x4E6F7420696E20636F6D6D6974207068617365 PUSH1 0x68 SHL PUSH1 0x44 DUP3 ADD MSTORE PUSH1 0x64 SWAP1 REVERT JUMPDEST SWAP1 POP ISZERO DUP7 PUSH2 0xE03 JUMP JUMPDEST PUSH1 0x40 MLOAD PUSH3 0x461BCD PUSH1 0xE5 SHL DUP2 MSTORE PUSH1 0x4 DUP2 ADD DUP4 SWAP1 MSTORE PUSH1 0x12 PUSH1 0x24 DUP3 ADD MSTORE PUSH18 0x10DBDB5B5A5D081C1A185CD948195B991959 PUSH1 0x72 SHL PUSH1 0x44 DUP3 ADD MSTORE PUSH1 0x64 SWAP1 REVERT JUMPDEST CALLVALUE PUSH2 0x12C JUMPI PUSH1 0x0 CALLDATASIZE PUSH1 0x3 NOT ADD SLT PUSH2 0x12C JUMPI PUSH1 0x0 SLOAD PUSH1 0x40 MLOAD PUSH1 0x1 PUSH1 0x1 PUSH1 0xA0 SHL SUB SWAP1 SWAP2 AND DUP2 MSTORE PUSH1 0x20 SWAP1 RETURN JUMPDEST CALLVALUE PUSH2 0x12C JUMPI PUSH1 0x40 CALLDATASIZE PUSH1 0x3 NOT ADD SLT PUSH2 0x12C JUMPI PUSH2 0x109F PUSH2 0x1D90 JUMP JUMPDEST PUSH1 0x4 CALLDATALOAD PUSH1 0x0 MSTORE PUSH1 0x3 PUSH1 0x20 MSTORE PUSH1 0x40 PUSH1 0x0 KECCAK256 SWAP1 PUSH1 0x1 DUP1 PUSH1 0xA0 SHL SUB AND PUSH1 0x0 MSTORE PUSH1 0x20 MSTORE PUSH1 0xA0 PUSH1 0x40 PUSH1 0x0 KECCAK256 DUP1 SLOAD SWAP1 PUSH1 0x1 DUP2 ADD SLOAD SWAP1 PUSH1 0xFF PUSH1 0x2 DUP3 ADD SLOAD AND PUSH1 0x4 PUSH1 0x3 DUP4 ADD SLOAD SWAP3 ADD SLOAD SWAP3 PUSH1 0x40 MLOAD SWAP5 DUP6 MSTORE PUSH1 0x20 DUP6 ADD MSTORE ISZERO ISZERO PUSH1 0x40 DUP5 ADD MSTORE PUSH1 0x60 DUP4 ADD MSTORE PUSH1 0x80 DUP3 ADD MSTORE RETURN JUMPDEST CALLVALUE PUSH2 0x12C JUMPI PUSH1 0x0 CALLDATASIZE PUSH1 0x3 NOT ADD SLT PUSH2 0x12C JUMPI PUSH1 0x0 SLOAD PUSH2 0x1127 CALLER PUSH1 0x1 PUSH1 0x1 PUSH1 0xA0 SHL SUB DUP4 AND EQ PUSH2 0x1E04 JUMP JUMPDEST PUSH1 0xFF PUSH1 0xA0 SHL NOT AND PUSH1 0x1 PUSH1 0xA0 SHL OR PUSH1 0x0 SWAP1 DUP2 SSTORE CALLER SWAP1 PUSH32 0x62E78CEA01BEE320CD4E420270B5EA74000D11B0C9F74754EBDBFC544B05A258 SWAP1 DUP1 LOG2 STOP JUMPDEST CALLVALUE PUSH2 0x12C JUMPI PUSH1 0x20 CALLDATASIZE PUSH1 0x3 NOT ADD SLT PUSH2 0x12C JUMPI PUSH1 0x4 CALLDATALOAD PUSH1 0x0 PUSH2 0x1E0 PUSH1 0x40 MLOAD PUSH2 0x1186 DUP2 PUSH2 0x1BFA JUMP JUMPDEST DUP3 DUP2 MSTORE DUP3 PUSH1 0x20 DUP3 ADD MSTORE PUSH1 0x60 PUSH1 0x40 DUP3 ADD MSTORE PUSH1 0x60 DUP1 DUP3 ADD MSTORE PUSH1 0x60 PUSH1 0x80 DUP3 ADD MSTORE DUP3 PUSH1 0xA0 DUP3 ADD MSTORE DUP3 PUSH1 0xC0 DUP3 ADD MSTORE DUP3 PUSH1 0xE0 DUP3 ADD MSTORE DUP3 PUSH2 0x100 DUP3 ADD MSTORE DUP3 PUSH2 0x120 DUP3 ADD MSTORE DUP3 PUSH2 0x140 DUP3 ADD MSTORE DUP3 PUSH2 0x160 DUP3 ADD MSTORE DUP3 PUSH2 0x180 DUP3 ADD MSTORE DUP3 PUSH2 0x1A0 DUP3 ADD MSTORE DUP3 PUSH2 0x1C0 DUP3 ADD MSTORE ADD MSTORE PUSH2 0x11F5 PUSH1 0x1 SLOAD DUP3 LT PUSH2 0x1E7D JUMP JUMPDEST PUSH1 0x0 MSTORE PUSH1 0x2 PUSH1 0x20 MSTORE PUSH1 0x40 PUSH1 0x0 KECCAK256 PUSH1 0x40 MLOAD SWAP1 PUSH2 0x120F DUP3 PUSH2 0x1BFA JUMP JUMPDEST DUP1 SLOAD DUP3 MSTORE PUSH1 0x1 DUP2 ADD SLOAD PUSH1 0x1 PUSH1 0x1 PUSH1 0xA0 SHL SUB AND PUSH1 0x20 DUP4 ADD MSTORE PUSH2 0x1232 PUSH1 0x2 DUP3 ADD PUSH2 0x1C88 JUMP JUMPDEST PUSH1 0x40 DUP4 ADD MSTORE PUSH2 0x1243 PUSH1 0x3 DUP3 ADD PUSH2 0x1C88 JUMP JUMPDEST PUSH1 0x60 DUP4 ADD MSTORE PUSH2 0x1254 PUSH1 0x4 DUP3 ADD PUSH2 0x1C88 JUMP JUMPDEST PUSH1 0x80 DUP4 ADD MSTORE PUSH1 0x5 DUP2 ADD SLOAD PUSH1 0xA0 DUP4 ADD MSTORE PUSH1 0x6 DUP2 ADD SLOAD PUSH1 0xC0 DUP4 ADD MSTORE PUSH1 0x7 DUP2 ADD SLOAD PUSH1 0xE0 DUP4 ADD MSTORE PUSH1 0x8 DUP2 ADD SLOAD PUSH2 0x100 DUP4 ADD MSTORE PUSH1 0x9 DUP2 ADD SLOAD PUSH1 0x4 PUSH1 0xFF DUP3 AND LT ISZERO PUSH2 0xA4E JUMPI PUSH1 0xFF SWAP2 DUP2 DUP4 PUSH1 0xE SWAP4 AND PUSH2 0x120 DUP7 ADD MSTORE PUSH1 0x1 DUP1 PUSH1 0xA0 SHL SUB SWAP1 PUSH1 0x8 SHR AND PUSH2 0x140 DUP6 ADD MSTORE PUSH1 0xA DUP2 ADD SLOAD PUSH2 0x160 DUP6 ADD MSTORE PUSH1 0xB DUP2 ADD SLOAD PUSH2 0x180 DUP6 ADD MSTORE PUSH1 0xC DUP2 ADD SLOAD PUSH2 0x1A0 DUP6 ADD MSTORE PUSH1 0xD DUP2 ADD SLOAD PUSH2 0x1C0 DUP6 ADD MSTORE ADD SLOAD AND ISZERO ISZERO PUSH2 0x1E0 DUP3 ADD MSTORE PUSH1 0x40 MLOAD DUP1 SWAP2 PUSH1 0x20 DUP3 MSTORE DUP1 MLOAD PUSH1 0x20 DUP4 ADD MSTORE PUSH1 0x1 DUP1 PUSH1 0xA0 SHL SUB PUSH1 0x20 DUP3 ADD MLOAD AND PUSH1 0x40 DUP4 ADD MSTORE PUSH2 0x1E0 PUSH2 0x135F PUSH2 0x132E PUSH1 0x40 DUP5 ADD MLOAD PUSH2 0x200 PUSH1 0x60 DUP8 ADD MSTORE PUSH2 0x220 DUP7 ADD SWAP1 PUSH2 0x1D2D JUMP JUMPDEST PUSH2 0x134A PUSH1 0x60 DUP6 ADD MLOAD SWAP2 PUSH1 0x1F NOT SWAP3 DUP4 DUP9 DUP4 SUB ADD PUSH1 0x80 DUP10 ADD MSTORE PUSH2 0x1D2D JUMP JUMPDEST SWAP1 PUSH1 0x80 DUP6 ADD MLOAD SWAP1 DUP7 DUP4 SUB ADD PUSH1 0xA0 DUP8 ADD MSTORE PUSH2 0x1D2D JUMP JUMPDEST SWAP2 PUSH1 0xA0 DUP2 ADD MLOAD PUSH1 0xC0 DUP6 ADD MSTORE PUSH1 0xC0 DUP2 ADD MLOAD PUSH1 0xE0 DUP6 ADD MSTORE PUSH1 0xE0 DUP2 ADD MLOAD PUSH2 0x100 DUP6 ADD MSTORE PUSH2 0x100 DUP2 ADD MLOAD PUSH2 0x120 DUP6 ADD MSTORE PUSH2 0x139F PUSH2 0x120 DUP3 ADD MLOAD PUSH2 0x140 DUP7 ADD SWAP1 PUSH2 0x1D6D JUMP JUMPDEST PUSH1 0x1 DUP1 PUSH1 0xA0 SHL SUB PUSH2 0x140 DUP3 ADD MLOAD AND PUSH2 0x160 DUP6 ADD MSTORE PUSH2 0x160 DUP2 ADD MLOAD PUSH2 0x180 DUP6 ADD MSTORE PUSH2 0x180 DUP2 ADD MLOAD PUSH2 0x1A0 DUP6 ADD MSTORE PUSH2 0x1A0 DUP2 ADD MLOAD PUSH2 0x1C0 DUP6 ADD MSTORE PUSH2 0x1C0 DUP2 ADD MLOAD DUP3 DUP6 ADD MSTORE ADD MLOAD ISZERO ISZERO PUSH2 0x200 DUP4 ADD MSTORE SUB SWAP1 RETURN JUMPDEST CALLVALUE PUSH2 0x12C JUMPI PUSH1 0x0 CALLDATASIZE PUSH1 0x3 NOT ADD SLT PUSH2 0x12C JUMPI PUSH1 0x20 PUSH1 0xFF PUSH1 0x0 SLOAD PUSH1 0xA0 SHR AND PUSH1 0x40 MLOAD SWAP1 ISZERO ISZERO DUP2 MSTORE RETURN JUMPDEST CALLVALUE PUSH2 0x12C JUMPI PUSH1 0x20 CALLDATASIZE PUSH1 0x3 NOT ADD SLT PUSH2 0x12C JUMPI PUSH2 0x1455 PUSH2 0x1441 PUSH1 0x4 CALLDATALOAD PUSH2 0x143C PUSH1 0x1 SLOAD DUP3 LT PUSH2 0x1E7D JUMP JUMPDEST PUSH2 0x1F01 JUMP JUMPDEST PUSH1 0x40 MLOAD SWAP2 DUP3 SWAP2 PUSH1 0x20 DUP4 MSTORE PUSH1 0x20 DUP4 ADD SWAP1 PUSH2 0x1D2D JUMP JUMPDEST SUB SWAP1 RETURN JUMPDEST CALLVALUE PUSH2 0x12C JUMPI PUSH1 0x20 CALLDATASIZE PUSH1 0x3 NOT ADD SLT PUSH2 0x12C JUMPI PUSH1 0x4 CALLDATALOAD PUSH1 0x0 MSTORE PUSH1 0x2 PUSH1 0x20 MSTORE PUSH1 0x40 PUSH1 0x0 KECCAK256 DUP1 SLOAD SWAP1 PUSH1 0x1 PUSH1 0xA0 SHL PUSH1 0x1 SWAP1 SUB PUSH1 0x1 DUP3 ADD SLOAD AND SWAP1 PUSH1 0x2 DUP2 ADD PUSH2 0x149A SWAP1 PUSH2 0x1C88 JUMP JUMPDEST PUSH2 0x14A6 PUSH1 0x3 DUP4 ADD PUSH2 0x1C88 JUMP JUMPDEST SWAP2 PUSH2 0x14B3 PUSH1 0x4 DUP3 ADD PUSH2 0x1C88 JUMP JUMPDEST SWAP3 PUSH1 0x5 DUP3 ADD SLOAD SWAP4 PUSH1 0x6 DUP4 ADD SLOAD PUSH1 0x7 DUP5 ADD SLOAD PUSH1 0x8 DUP6 ADD SLOAD PUSH1 0x9 DUP7 ADD SLOAD SWAP2 PUSH1 0xA DUP8 ADD SLOAD SWAP4 PUSH1 0xB DUP9 ADD SLOAD SWAP6 PUSH1 0xC DUP10 ADD SLOAD SWAP8 PUSH1 0xD DUP11 ADD SLOAD SWAP10 PUSH1 0xE ADD SLOAD PUSH1 0xFF AND SWAP11 PUSH1 0x40 MLOAD SWAP15 DUP16 SWAP15 DUP16 SWAP1 PUSH2 0x200 SWAP3 DUP3 MSTORE PUSH1 0x20 DUP3 ADD MSTORE DUP2 PUSH1 0x40 DUP3 ADD MSTORE ADD PUSH2 0x1512 SWAP2 PUSH2 0x1D2D JUMP JUMPDEST DUP14 DUP2 SUB PUSH1 0x60 DUP16 ADD MSTORE PUSH2 0x1523 SWAP2 PUSH2 0x1D2D JUMP JUMPDEST DUP13 DUP2 SUB PUSH1 0x80 DUP15 ADD MSTORE PUSH2 0x1534 SWAP2 PUSH2 0x1D2D JUMP JUMPDEST SWAP10 PUSH1 0xA0 DUP13 ADD MSTORE PUSH1 0xC0 DUP12 ADD MSTORE PUSH1 0xE0 DUP11 ADD MSTORE PUSH2 0x100 DUP10 ADD MSTORE PUSH2 0x120 DUP9 ADD PUSH1 0xFF DUP3 AND SWAP1 PUSH2 0x155D SWAP2 PUSH2 0x1D6D JUMP JUMPDEST PUSH1 0x8 SHR PUSH1 0x1 PUSH1 0x1 PUSH1 0xA0 SHL SUB AND PUSH2 0x140 DUP9 ADD MSTORE PUSH2 0x160 DUP8 ADD MSTORE PUSH2 0x180 DUP7 ADD MSTORE PUSH2 0x1A0 DUP6 ADD MSTORE PUSH2 0x1C0 DUP5 ADD MSTORE ISZERO ISZERO PUSH2 0x1E0 DUP4 ADD MSTORE SUB SWAP1 RETURN JUMPDEST CALLVALUE PUSH2 0x12C JUMPI PUSH1 0x60 CALLDATASIZE PUSH1 0x3 NOT ADD SLT PUSH2 0x12C JUMPI PUSH1 0x4 CALLDATALOAD PUSH1 0x24 SWAP1 DUP2 CALLDATALOAD SWAP2 PUSH1 0x44 SWAP1 PUSH2 0x15C2 PUSH1 0xFF PUSH1 0x0 SLOAD PUSH1 0xA0 SHR AND ISZERO PUSH2 0x1E3C JUMP JUMPDEST PUSH2 0x15CF PUSH1 0x1 SLOAD DUP5 LT PUSH2 0x1E7D JUMP JUMPDEST DUP3 PUSH1 0x0 MSTORE PUSH1 0x20 SWAP2 PUSH1 0x2 DUP4 MSTORE PUSH1 0x40 PUSH1 0x0 KECCAK256 SWAP1 PUSH1 0x3 DUP5 MSTORE PUSH1 0x40 PUSH1 0x0 KECCAK256 CALLER PUSH1 0x0 MSTORE DUP5 MSTORE PUSH1 0x40 PUSH1 0x0 KECCAK256 SWAP1 PUSH1 0x6 DUP4 ADD SLOAD TIMESTAMP GT ISZERO PUSH2 0x199A JUMPI PUSH1 0x7 DUP4 ADD SWAP4 DUP5 SLOAD TIMESTAMP GT PUSH2 0x1963 JUMPI DUP3 SLOAD SWAP3 DUP4 ISZERO PUSH2 0x192E JUMPI PUSH1 0x2 DUP2 ADD DUP1 SLOAD SWAP4 PUSH1 0xFF DUP6 AND PUSH2 0x18F9 JUMPI PUSH1 0x5 DUP8 ADD SLOAD DUP12 LT PUSH2 0x18C3 JUMPI PUSH1 0x1 DUP4 ADD SWAP6 DUP12 DUP8 SLOAD LT PUSH2 0x1888 JUMPI PUSH1 0x40 MLOAD DUP11 DUP2 ADD SWAP1 DUP14 DUP3 MSTORE DUP4 CALLDATALOAD PUSH1 0x40 DUP3 ADD MSTORE PUSH1 0x40 DUP2 MSTORE PUSH2 0x165C DUP2 PUSH2 0x1C31 JUMP JUMPDEST MLOAD SWAP1 KECCAK256 SUB PUSH2 0x1846 JUMPI POP PUSH1 0x1 PUSH1 0xFF NOT DUP1 SWAP6 AND OR SWAP1 SSTORE DUP9 PUSH1 0x3 DUP3 ADD SSTORE PUSH1 0x4 TIMESTAMP SWAP2 ADD SSTORE PUSH1 0xD DUP5 ADD PUSH2 0x168A DUP2 SLOAD PUSH2 0x1EC2 JUMP JUMPDEST SWAP1 SSTORE PUSH1 0x9 DUP5 ADD SWAP2 DUP3 SLOAD SWAP2 PUSH1 0xFF DUP4 AND SWAP1 PUSH1 0x4 DUP3 LT ISZERO PUSH2 0x1832 JUMPI POP SWAP4 DUP8 SWAP7 SWAP5 SWAP4 PUSH1 0x8 SWAP4 DUP11 SWAP8 SWAP4 PUSH1 0x1 PUSH32 0x86D2FBC9069D34216EBC65B38CE840528D3F8CAC0C86D2AAA7AB6A9DB8BC35D3 SWAP12 SWAP8 EQ PUSH2 0x1825 JUMPI JUMPDEST POP POP DUP11 PUSH1 0xA DUP5 ADD DUP1 SLOAD DUP3 GT PUSH1 0x0 EQ PUSH2 0x17D7 JUMPI DUP1 SLOAD PUSH1 0xB DUP7 ADD SSTORE SSTORE DUP1 SLOAD PUSH2 0x172C SWAP3 POP DUP5 SHR PUSH1 0x1 PUSH1 0x1 PUSH1 0xA0 SHL SUB AND DUP1 PUSH2 0x179F JUMPI JUMPDEST POP DUP1 SLOAD PUSH2 0x100 PUSH1 0x1 PUSH1 0xA8 SHL SUB NOT AND CALLER PUSH1 0x8 SHL PUSH2 0x100 PUSH1 0x1 PUSH1 0xA8 SHL SUB AND OR SWAP1 SSTORE JUMP JUMPDEST ADD SLOAD SWAP2 DUP3 ISZERO ISZERO DUP1 PUSH2 0x178B JUMPI JUMPDEST PUSH2 0x174C JUMPI JUMPDEST POP POP POP POP PUSH1 0x40 MLOAD SWAP4 DUP5 MSTORE CALLER SWAP4 LOG3 STOP JUMPDEST PUSH2 0x1778 PUSH32 0xFC67C3C4ED742DBC67B83AF687E5AAD503989794D43C608AE56FCD1654DBF9CA SWAP4 DUP3 SLOAD PUSH2 0x1EE7 JUMP JUMPDEST DUP1 SWAP2 SSTORE PUSH1 0x40 MLOAD SWAP1 DUP2 MSTORE LOG2 DUP3 DUP6 DUP3 DUP2 PUSH2 0x173D JUMP JUMPDEST POP PUSH1 0x78 PUSH2 0x1799 TIMESTAMP DUP4 SLOAD PUSH2 0x1EF4 JUMP JUMPDEST LT PUSH2 0x1738 JUMP JUMPDEST DUP8 PUSH1 0x0 MSTORE PUSH1 0x3 DUP7 MSTORE PUSH1 0x40 PUSH1 0x0 KECCAK256 SWAP1 PUSH1 0x0 MSTORE DUP6 MSTORE PUSH1 0x1 PUSH1 0x40 PUSH1 0x0 KECCAK256 ADD SLOAD PUSH1 0x5 DUP7 MSTORE PUSH2 0x17CF PUSH1 0x40 PUSH1 0x0 KECCAK256 SWAP2 DUP3 SLOAD PUSH2 0x1EE7 JUMP JUMPDEST SWAP1 SSTORE DUP12 PUSH2 0x170B JUMP JUMPDEST POP SWAP1 POP PUSH1 0xB DUP4 ADD DUP1 SLOAD DUP3 GT PUSH1 0x0 EQ PUSH2 0x180A JUMPI SSTORE SLOAD CALLER PUSH1 0x0 MSTORE PUSH1 0x5 DUP5 MSTORE PUSH2 0x1803 PUSH1 0x40 PUSH1 0x0 KECCAK256 SWAP2 DUP3 SLOAD PUSH2 0x1EE7 JUMP JUMPDEST SWAP1 SSTORE PUSH2 0x172C JUMP JUMPDEST POP POP SLOAD CALLER PUSH1 0x0 MSTORE PUSH1 0x5 DUP5 MSTORE PUSH2 0x1803 PUSH1 0x40 PUSH1 0x0 KECCAK256 SWAP2 DUP3 SLOAD PUSH2 0x1EE7 JUMP JUMPDEST AND PUSH1 0x2 OR DUP2 SSTORE DUP12 DUP1 PUSH2 0x16D9 JUMP JUMPDEST PUSH4 0x4E487B71 PUSH1 0xE0 SHL PUSH1 0x0 SWAP1 DUP2 MSTORE PUSH1 0x21 PUSH1 0x4 MSTORE REVERT JUMPDEST DUP9 PUSH32 0x48617368206D69736D61746368202D20696E76616C69642072657665616C0000 PUSH1 0x64 SWAP3 PUSH1 0x1E DUP8 PUSH1 0x40 MLOAD SWAP5 PUSH3 0x461BCD PUSH1 0xE5 SHL DUP7 MSTORE PUSH1 0x4 DUP7 ADD MSTORE DUP5 ADD MSTORE DUP3 ADD MSTORE REVERT JUMPDEST PUSH1 0x40 MLOAD PUSH3 0x461BCD PUSH1 0xE5 SHL DUP2 MSTORE PUSH1 0x4 DUP2 ADD DUP12 SWAP1 MSTORE PUSH1 0x15 DUP2 DUP8 ADD MSTORE PUSH21 0x11195C1BDCDA5D081B195CDCC81D1A185B88189A59 PUSH1 0x5A SHL DUP2 DUP5 ADD MSTORE PUSH1 0x64 SWAP1 REVERT JUMPDEST DUP9 PUSH17 0x4269642062656C6F77206D696E696D756D PUSH1 0x78 SHL PUSH1 0x64 SWAP3 PUSH1 0x11 DUP8 PUSH1 0x40 MLOAD SWAP5 PUSH3 0x461BCD PUSH1 0xE5 SHL DUP7 MSTORE PUSH1 0x4 DUP7 ADD MSTORE DUP5 ADD MSTORE DUP3 ADD MSTORE REVERT JUMPDEST DUP9 PUSH16 0x105B1C9958591E481C995D99585B1959 PUSH1 0x82 SHL PUSH1 0x64 SWAP3 PUSH1 0x10 DUP8 PUSH1 0x40 MLOAD SWAP5 PUSH3 0x461BCD PUSH1 0xE5 SHL DUP7 MSTORE PUSH1 0x4 DUP7 ADD MSTORE DUP5 ADD MSTORE DUP3 ADD MSTORE REVERT JUMPDEST PUSH1 0x40 MLOAD PUSH3 0x461BCD PUSH1 0xE5 SHL DUP2 MSTORE PUSH1 0x4 DUP2 ADD DUP9 SWAP1 MSTORE PUSH1 0xF DUP2 DUP5 ADD MSTORE PUSH15 0x139BC818DBDB5B5A5D08199BDD5B99 PUSH1 0x8A SHL DUP2 DUP6 ADD MSTORE PUSH1 0x64 SWAP1 REVERT JUMPDEST PUSH18 0x14995D99585B081C1A185CD948195B991959 PUSH1 0x72 SHL PUSH1 0x64 SWAP3 PUSH1 0x12 DUP9 SWAP4 PUSH1 0x40 MLOAD SWAP5 PUSH3 0x461BCD PUSH1 0xE5 SHL DUP7 MSTORE PUSH1 0x4 DUP7 ADD MSTORE DUP5 ADD MSTORE DUP3 ADD MSTORE REVERT JUMPDEST DUP5 PUSH22 0x10DBDB5B5A5D081C1A185CD9481B9BDD08195B991959 PUSH1 0x52 SHL PUSH1 0x64 SWAP3 PUSH1 0x16 DUP8 PUSH1 0x40 MLOAD SWAP5 PUSH3 0x461BCD PUSH1 0xE5 SHL DUP7 MSTORE PUSH1 0x4 DUP7 ADD MSTORE DUP5 ADD MSTORE DUP3 ADD MSTORE REVERT JUMPDEST CALLVALUE PUSH2 0x12C JUMPI PUSH1 0x0 CALLDATASIZE PUSH1 0x3 NOT ADD SLT PUSH2 0x12C JUMPI PUSH1 0x0 SLOAD PUSH2 0x19FD CALLER PUSH1 0x1 PUSH1 0x1 PUSH1 0xA0 SHL SUB DUP4 AND EQ PUSH2 0x1E04 JUMP JUMPDEST PUSH1 0xFF PUSH1 0xA0 SHL NOT AND PUSH1 0x0 SSTORE CALLER PUSH32 0x5DB9EE0A495BF2E6FF9C91A7834C1BA4FDD244A5E8AA4E537BD38AEAE4B073AA PUSH1 0x0 DUP1 LOG2 STOP JUMPDEST CALLVALUE PUSH2 0x12C JUMPI PUSH1 0x0 CALLDATASIZE PUSH1 0x3 NOT ADD SLT PUSH2 0x12C JUMPI CALLER PUSH1 0x0 MSTORE PUSH1 0x20 PUSH1 0x5 DUP2 MSTORE PUSH1 0x40 PUSH1 0x0 KECCAK256 SLOAD SWAP1 DUP2 ISZERO PUSH2 0x1B06 JUMPI CALLER PUSH1 0x0 MSTORE PUSH1 0x5 DUP2 MSTORE PUSH1 0x0 PUSH1 0x40 DUP2 KECCAK256 SSTORE PUSH1 0x0 DUP1 DUP1 DUP1 DUP6 CALLER GAS CALL RETURNDATASIZE ISZERO PUSH2 0x1B01 JUMPI RETURNDATASIZE PUSH2 0x1A7F DUP2 PUSH2 0x1DE9 JUMP JUMPDEST SWAP1 PUSH2 0x1A8D PUSH1 0x40 MLOAD SWAP3 DUP4 PUSH2 0x1C67 JUMP JUMPDEST DUP2 MSTORE PUSH1 0x0 DUP4 RETURNDATASIZE SWAP3 ADD RETURNDATACOPY JUMPDEST ISZERO PUSH2 0x1AC9 JUMPI PUSH32 0x7FCF532C15F0A6DB0BD6D0E038BEA71D30D808C7D98CB3BF7268A95BF5081B65 SWAP1 PUSH1 0x40 MLOAD SWAP3 DUP4 MSTORE CALLER SWAP3 LOG2 STOP JUMPDEST PUSH1 0x64 SWAP1 PUSH1 0x40 MLOAD SWAP1 PUSH3 0x461BCD PUSH1 0xE5 SHL DUP3 MSTORE PUSH1 0x4 DUP3 ADD MSTORE PUSH1 0x11 PUSH1 0x24 DUP3 ADD MSTORE PUSH17 0x15DA5D1A191C985DD85B0819985A5B1959 PUSH1 0x7A SHL PUSH1 0x44 DUP3 ADD MSTORE REVERT JUMPDEST PUSH2 0x1A97 JUMP JUMPDEST PUSH1 0x64 SWAP1 PUSH1 0x40 MLOAD SWAP1 PUSH3 0x461BCD PUSH1 0xE5 SHL DUP3 MSTORE PUSH1 0x4 DUP3 ADD MSTORE PUSH1 0x13 PUSH1 0x24 DUP3 ADD MSTORE PUSH19 0x4E6F7468696E6720746F207769746864726177 PUSH1 0x68 SHL PUSH1 0x44 DUP3 ADD MSTORE REVERT JUMPDEST CALLVALUE PUSH2 0x12C JUMPI PUSH1 0x40 CALLDATASIZE PUSH1 0x3 NOT ADD SLT PUSH2 0x12C JUMPI PUSH1 0x24 CALLDATALOAD PUSH1 0x4 CALLDATALOAD PUSH1 0x0 MSTORE PUSH1 0x4 PUSH1 0x20 MSTORE PUSH1 0x40 PUSH1 0x0 KECCAK256 DUP1 SLOAD DUP3 LT ISZERO PUSH2 0x12C JUMPI PUSH1 0x20 SWAP2 PUSH2 0x1B79 SWAP2 PUSH2 0x1B92 JUMP JUMPDEST SWAP1 SLOAD PUSH1 0x40 MLOAD PUSH1 0x3 SWAP3 SWAP1 SWAP3 SHL SHR PUSH1 0x1 PUSH1 0x1 PUSH1 0xA0 SHL SUB AND DUP2 MSTORE RETURN JUMPDEST DUP1 SLOAD DUP3 LT ISZERO PUSH2 0x1BAA JUMPI PUSH1 0x0 MSTORE PUSH1 0x20 PUSH1 0x0 KECCAK256 ADD SWAP1 PUSH1 0x0 SWAP1 JUMP JUMPDEST PUSH4 0x4E487B71 PUSH1 0xE0 SHL PUSH1 0x0 MSTORE PUSH1 0x32 PUSH1 0x4 MSTORE PUSH1 0x24 PUSH1 0x0 REVERT JUMPDEST SWAP1 PUSH1 0x1 DUP3 DUP2 SHR SWAP3 AND DUP1 ISZERO PUSH2 0x1BF0 JUMPI JUMPDEST PUSH1 0x20 DUP4 LT EQ PUSH2 0x1BDA JUMPI JUMP JUMPDEST PUSH4 0x4E487B71 PUSH1 0xE0 SHL PUSH1 0x0 MSTORE PUSH1 0x22 PUSH1 0x4 MSTORE PUSH1 0x24 PUSH1 0x0 REVERT JUMPDEST SWAP2 PUSH1 0x7F AND SWAP2 PUSH2 0x1BCF JUMP JUMPDEST PUSH2 0x200 DUP2 ADD SWAP1 DUP2 LT PUSH1 0x1 PUSH1 0x1 PUSH1 0x40 SHL SUB DUP3 GT OR PUSH2 0xB34 JUMPI PUSH1 0x40 MSTORE JUMP JUMPDEST PUSH1 0xA0 DUP2 ADD SWAP1 DUP2 LT PUSH1 0x1 PUSH1 0x1 PUSH1 0x40 SHL SUB DUP3 GT OR PUSH2 0xB34 JUMPI PUSH1 0x40 MSTORE JUMP JUMPDEST PUSH1 0x60 DUP2 ADD SWAP1 DUP2 LT PUSH1 0x1 PUSH1 0x1 PUSH1 0x40 SHL SUB DUP3 GT OR PUSH2 0xB34 JUMPI PUSH1 0x40 MSTORE JUMP JUMPDEST PUSH1 0x40 DUP2 ADD SWAP1 DUP2 LT PUSH1 0x1 PUSH1 0x1 PUSH1 0x40 SHL SUB DUP3 GT OR PUSH2 0xB34 JUMPI PUSH1 0x40 MSTORE JUMP JUMPDEST SWAP1 PUSH1 0x1F DUP1 NOT SWAP2 ADD AND DUP2 ADD SWAP1 DUP2 LT PUSH1 0x1 PUSH1 0x1 PUSH1 0x40 SHL SUB DUP3 GT OR PUSH2 0xB34 JUMPI PUSH1 0x40 MSTORE JUMP JUMPDEST SWAP1 PUSH1 0x40 MLOAD SWAP2 DUP3 PUSH1 0x0 DUP3 SLOAD PUSH2 0x1C9B DUP2 PUSH2 0x1BC0 JUMP JUMPDEST SWAP1 DUP2 DUP5 MSTORE PUSH1 0x20 SWAP5 PUSH1 0x1 SWAP2 PUSH1 0x1 DUP2 AND SWAP1 DUP2 PUSH1 0x0 EQ PUSH2 0x1D0B JUMPI POP PUSH1 0x1 EQ PUSH2 0x1CCC JUMPI JUMPDEST POP POP POP PUSH2 0x1CCA SWAP3 POP SUB DUP4 PUSH2 0x1C67 JUMP JUMPDEST JUMP JUMPDEST PUSH1 0x0 SWAP1 DUP2 MSTORE DUP6 DUP2 KECCAK256 SWAP6 SWAP4 POP SWAP2 SWAP1 JUMPDEST DUP2 DUP4 LT PUSH2 0x1CF3 JUMPI POP POP PUSH2 0x1CCA SWAP4 POP DUP3 ADD ADD CODESIZE DUP1 DUP1 PUSH2 0x1CBB JUMP JUMPDEST DUP6 SLOAD DUP9 DUP5 ADD DUP6 ADD MSTORE SWAP5 DUP6 ADD SWAP5 DUP8 SWAP5 POP SWAP2 DUP4 ADD SWAP2 PUSH2 0x1CDA JUMP JUMPDEST SWAP3 POP POP POP PUSH2 0x1CCA SWAP5 SWAP3 POP PUSH1 0xFF NOT AND DUP3 DUP5 ADD MSTORE ISZERO ISZERO PUSH1 0x5 SHL DUP3 ADD ADD CODESIZE DUP1 DUP1 PUSH2 0x1CBB JUMP JUMPDEST SWAP2 SWAP1 DUP3 MLOAD SWAP3 DUP4 DUP3 MSTORE PUSH1 0x0 JUMPDEST DUP5 DUP2 LT PUSH2 0x1D59 JUMPI POP POP DUP3 PUSH1 0x0 PUSH1 0x20 DUP1 SWAP5 SWAP6 DUP5 ADD ADD MSTORE PUSH1 0x1F DUP1 NOT SWAP2 ADD AND ADD ADD SWAP1 JUMP JUMPDEST PUSH1 0x20 DUP2 DUP4 ADD DUP2 ADD MLOAD DUP5 DUP4 ADD DUP3 ADD MSTORE ADD PUSH2 0x1D38 JUMP JUMPDEST SWAP1 PUSH1 0x4 DUP3 LT ISZERO PUSH2 0xA4E JUMPI MSTORE JUMP JUMPDEST PUSH1 0x4 CALLDATALOAD SWAP1 PUSH1 0x1 PUSH1 0x1 PUSH1 0xA0 SHL SUB DUP3 AND DUP3 SUB PUSH2 0x12C JUMPI JUMP JUMPDEST PUSH1 0x24 CALLDATALOAD SWAP1 PUSH1 0x1 PUSH1 0x1 PUSH1 0xA0 SHL SUB DUP3 AND DUP3 SUB PUSH2 0x12C JUMPI JUMP JUMPDEST PUSH1 0x40 SWAP1 PUSH1 0x3 NOT ADD SLT PUSH2 0x12C JUMPI PUSH1 0x4 CALLDATALOAD SWAP1 PUSH1 0x24 CALLDATALOAD SWAP1 JUMP JUMPDEST SWAP2 DUP2 PUSH1 0x1F DUP5 ADD SLT ISZERO PUSH2 0x12C JUMPI DUP3 CALLDATALOAD SWAP2 PUSH1 0x1 PUSH1 0x1 PUSH1 0x40 SHL SUB DUP4 GT PUSH2 0x12C JUMPI PUSH1 0x20 DUP4 DUP2 DUP7 ADD SWAP6 ADD ADD GT PUSH2 0x12C JUMPI JUMP JUMPDEST PUSH1 0x1 PUSH1 0x1 PUSH1 0x40 SHL SUB DUP2 GT PUSH2 0xB34 JUMPI PUSH1 0x1F ADD PUSH1 0x1F NOT AND PUSH1 0x20 ADD SWAP1 JUMP JUMPDEST ISZERO PUSH2 0x1E0B JUMPI JUMP JUMPDEST PUSH1 0x40 MLOAD PUSH3 0x461BCD PUSH1 0xE5 SHL DUP2 MSTORE PUSH1 0x20 PUSH1 0x4 DUP3 ADD MSTORE PUSH1 0x9 PUSH1 0x24 DUP3 ADD MSTORE PUSH9 0x2737BA1037BBB732B9 PUSH1 0xB9 SHL PUSH1 0x44 DUP3 ADD MSTORE PUSH1 0x64 SWAP1 REVERT JUMPDEST ISZERO PUSH2 0x1E43 JUMPI JUMP JUMPDEST PUSH1 0x40 MLOAD PUSH3 0x461BCD PUSH1 0xE5 SHL DUP2 MSTORE PUSH1 0x20 PUSH1 0x4 DUP3 ADD MSTORE PUSH1 0x12 PUSH1 0x24 DUP3 ADD MSTORE PUSH18 0x10DBDB9D1C9858DD081A5CC81C185D5CD959 PUSH1 0x72 SHL PUSH1 0x44 DUP3 ADD MSTORE PUSH1 0x64 SWAP1 REVERT JUMPDEST ISZERO PUSH2 0x1E84 JUMPI JUMP JUMPDEST PUSH1 0x40 MLOAD PUSH3 0x461BCD PUSH1 0xE5 SHL DUP2 MSTORE PUSH1 0x20 PUSH1 0x4 DUP3 ADD MSTORE PUSH1 0x16 PUSH1 0x24 DUP3 ADD MSTORE PUSH22 0x105D58DD1A5BDB88191BD95CC81B9BDD08195E1A5CDD PUSH1 0x52 SHL PUSH1 0x44 DUP3 ADD MSTORE PUSH1 0x64 SWAP1 REVERT JUMPDEST PUSH1 0x0 NOT DUP2 EQ PUSH2 0x1ED1 JUMPI PUSH1 0x1 ADD SWAP1 JUMP JUMPDEST PUSH4 0x4E487B71 PUSH1 0xE0 SHL PUSH1 0x0 MSTORE PUSH1 0x11 PUSH1 0x4 MSTORE PUSH1 0x24 PUSH1 0x0 REVERT JUMPDEST SWAP2 SWAP1 DUP3 ADD DUP1 SWAP3 GT PUSH2 0x1ED1 JUMPI JUMP JUMPDEST SWAP2 SWAP1 DUP3 SUB SWAP2 DUP3 GT PUSH2 0x1ED1 JUMPI JUMP JUMPDEST PUSH1 0x0 MSTORE PUSH1 0x2 PUSH1 0x20 MSTORE PUSH1 0x40 PUSH1 0x0 KECCAK256 PUSH1 0xFF PUSH1 0xE DUP3 ADD SLOAD AND PUSH2 0x1FA5 JUMPI PUSH1 0x6 DUP2 ADD SLOAD TIMESTAMP GT ISZERO PUSH2 0x1F82 JUMPI PUSH1 0x7 ADD SLOAD TIMESTAMP GT ISZERO PUSH2 0x1F60 JUMPI PUSH1 0x40 MLOAD PUSH2 0x1F3D DUP2 PUSH2 0x1C4C JUMP JUMPDEST PUSH1 0x13 DUP2 MSTORE PUSH19 0x2832B73234B733A334B730B634BD30BA34B7B7 PUSH1 0x69 SHL PUSH1 0x20 DUP3 ADD MSTORE SWAP1 JUMP JUMPDEST PUSH1 0x40 MLOAD PUSH2 0x1F6C DUP2 PUSH2 0x1C4C JUMP JUMPDEST PUSH1 0x6 DUP2 MSTORE PUSH6 0x14995D99585B PUSH1 0xD2 SHL PUSH1 0x20 DUP3 ADD MSTORE SWAP1 JUMP JUMPDEST POP PUSH1 0x40 MLOAD PUSH2 0x1F8F DUP2 PUSH2 0x1C4C JUMP JUMPDEST PUSH1 0x6 DUP2 MSTORE PUSH6 0x10DBDB5B5A5D PUSH1 0xD2 SHL PUSH1 0x20 DUP3 ADD MSTORE SWAP1 JUMP JUMPDEST POP PUSH1 0x40 MLOAD PUSH2 0x1FB2 DUP2 PUSH2 0x1C4C JUMP JUMPDEST PUSH1 0x5 DUP2 MSTORE PUSH5 0x115B991959 PUSH1 0xDA SHL PUSH1 0x20 DUP3 ADD MSTORE SWAP1 JUMP JUMPDEST SWAP3 SWAP2 SWAP3 PUSH2 0x1FD3 DUP3 PUSH2 0x1DE9 JUMP JUMPDEST SWAP2 PUSH2 0x1FE1 PUSH1 0x40 MLOAD SWAP4 DUP5 PUSH2 0x1C67 JUMP JUMPDEST DUP3 SWAP5 DUP2 DUP5 MSTORE DUP2 DUP4 ADD GT PUSH2 0x12C JUMPI DUP3 DUP2 PUSH1 0x20 SWAP4 DUP5 PUSH1 0x0 SWAP7 ADD CALLDATACOPY ADD ADD MSTORE JUMP JUMPDEST SWAP1 DUP1 PUSH1 0x20 SWAP4 SWAP3 DUP2 DUP5 MSTORE DUP5 DUP5 ADD CALLDATACOPY PUSH1 0x0 DUP3 DUP3 ADD DUP5 ADD MSTORE PUSH1 0x1F ADD PUSH1 0x1F NOT AND ADD ADD SWAP1 JUMP INVALID LOG2 PUSH5 0x6970667358 0x22 SLT KECCAK256 0x2E CALLDATACOPY MLOAD 0xD DUP14 0xC1 0xBE COINBASE 0xA7 BYTE DUP5 CALLDATASIZE 0xEA PUSH32 0x15AF27F01ACEF142512CE3C328B75AB19E2B64736F6C63430008180033000000 "},"methodIdentifiers":{"auctionBidders(uint256,uint256)":"0f715f1d","auctions(uint256)":"571a26a0","commitBid(uint256,bytes32)":"9468cb61","commits(uint256,address)":"885d68a8","computeCommitHash(uint256,bytes32)":"9eb3d2fb","createAuction(string,string,string,uint256,uint256,uint256,uint256)":"9d730b13","finalizeAuction(uint256)":"e8083863","getAuction(uint256)":"78bd7935","getAuctionBidders(uint256)":"df276469","getAuctionCount()":"c44e6640","getCommit(uint256,address)":"f2f56ffe","getCurrentPhase(uint256)":"572e85ec","getPendingWithdrawal(address)":"7ee8b2f8","nextAuctionId()":"fc528482","owner()":"8da5cb5b","pause()":"8456cb59","paused()":"5c975abb","pendingWithdrawals(address)":"f3f43703","revealBid(uint256,uint256,bytes32)":"4d380a0d","transferOwnership(address)":"f2fde38b","unpause()":"3f4ba83a","withdraw()":"3ccfd60b"}}}}}