{
  "_format": "hh-sol-artifact-1",
  "contractName": "SealedBidAuction",
  "sourceName": "contracts/SealedBidAuction.sol",
  "abi": [
    {
      "inputs": [],
      "stateMutability": "nonpayable",
      "type": "constructor"
    },
    {
      "anonymous": false,
      "inputs": [
        {
          "indexed": true,
          "internalType": "uint256",
          "name": "auctionId",
          "type": "uint256"
        },
        {
          "indexed": true,
          "internalType": "address",
          "name": "creator",
          "type": "address"
        },
        {
          "indexed": false,
          "internalType": "string",
          "name": "title",
          "type": "string"
        },
        {
          "indexed": false,
          "internalType": "string",
          "name": "assetType",
          "type": "string"
        },
        {
          "indexed": false,
          "internalType": "uint256",
          "name": "minBid",
          "type": "uint256"
        },
        {
          "indexed": false,
          "internalType": "uint256",
          "name": "commitDeadline",
          "type": "uint256"
        },
        {
          "indexed": false,
          "internalType": "uint256",
          "name": "revealDeadline",
          "type": "uint256"
        }
      ],
      "name": "AuctionCreated",
      "type": "event"
    },
    {
      "anonymous": false,
      "inputs": [
        {
          "indexed": true,
          "internalType": "uint256",
          "name": "auctionId",
          "type": "uint256"
        },
        {
          "indexed": true,
          "internalType": "address",
          "name": "winner",
          "type": "address"
        },
        {
          "indexed": false,
          "internalType": "uint256",
          "name": "winningBid",
          "type": "uint256"
        },
        {
          "indexed": false,
          "internalType": "uint256",
          "name": "pricePaid",
          "type": "uint256"
        }
      ],
      "name": "AuctionEnded",
      "type": "event"
    },
    {
      "anonymous": false,
      "inputs": [
        {
          "indexed": true,
          "internalType": "uint256",
          "name": "auctionId",
          "type": "uint256"
        },
        {
          "indexed": true,
          "internalType": "address",
          "name": "bidder",
          "type": "address"
        },
        {
          "indexed": false,
          "internalType": "bytes32",
          "name": "commitHash",
          "type": "bytes32"
        },
        {
          "indexed": false,
          "internalType": "uint256",
          "name": "deposit",
          "type": "uint256"
        }
      ],
      "name": "BidCommitted",
      "type": "event"
    },
    {
      "anonymous": false,
      "inputs": [
        {
          "indexed": true,
          "internalType": "uint256",
          "name": "auctionId",
          "type": "uint256"
        },
        {
          "indexed": true,
          "internalType": "address",
          "name": "bidder",
          "type": "address"
        },
        {
          "indexed": false,
          "internalType": "uint256",
          "name": "amount",
          "type": "uint256"
        }
      ],
      "name": "BidRevealed",
      "type": "event"
    },
    {
      "anonymous": false,
      "inputs": [
        {
          "indexed": true,
          "internalType": "address",
          "name": "by",
          "type": "address"
        }
      ],
      "name": "Paused",
      "type": "event"
    },
    {
      "anonymous": false,
      "inputs": [
        {
          "indexed": true,
          "internalType": "uint256",
          "name": "auctionId",
          "type": "uint256"
        },
        {
          "indexed": false,
          "internalType": "uint256",
          "name": "newRevealDeadline",
          "type": "uint256"
        }
      ],
      "name": "RevealExtended",
      "type": "event"
    },
    {
      "anonymous": false,
      "inputs": [
        {
          "indexed": true,
          "internalType": "address",
          "name": "by",
          "type": "address"
        }
      ],
      "name": "Unpaused",
      "type": "event"
    },
    {
      "anonymous": false,
      "inputs": [
        {
          "indexed": true,
          "internalType": "address",
          "name": "bidder",
          "type": "address"
        },
        {
          "indexed": false,
          "internalType": "uint256",
          "name": "amount",
          "type": "uint256"
        }
      ],
      "name": "Withdrawal",
      "type": "event"
    },
    {
      "inputs": [
        {
          "internalType": "uint256",
          "name": "",
          "type": "uint256"
        },
        {
          "internalType": "uint256",
          "name": "",
          "type": "uint256"
        }
      ],
      "name": "auctionBidders",
      "outputs": [
        {
          "internalType": "address",
          "name": "",
          "type": "address"
        }
      ],
      "stateMutability": "view",
      "type": "function"
    },
    {
      "inputs": [
        {
          "internalType": "uint256",
          "name": "",
          "type": "uint256"
        }
      ],
      "name": "auctions",
      "outputs": [
        {
          "internalType": "uint256",
          "name": "id",
          "type": "uint256"
        },
        {
          "internalType": "address",
          "name": "creator",
          "type": "address"
        },
        {
          "internalType": "string",
          "name": "title",
          "type": "string"
        },
        {
          "internalType": "string",
          "name": "description",
          "type": "string"
        },
        {
          "internalType": "string",
          "name": "assetType",
          "type": "string"
        },
        {
          "internalType": "uint256",
          "name": "minBid",
          "type": "uint256"
        },
        {
          "internalType": "uint256",
          "name": "commitDeadline",
          "type": "uint256"
        },
        {
          "internalType": "uint256",
          "name": "revealDeadline",
          "type": "uint256"
        },
        {
          "internalType": "uint256",
          "name": "antiSnipeExtension",
          "type": "uint256"
        },
        {
          "internalType": "enum SealedBidAuction.AuctionPhase",
          "name": "phase",
          "type": "uint8"
        },
        {
          "internalType": "address",
          "name": "winner",
          "type": "address"
        },
        {
          "internalType": "uint256",
          "name": "winningBid",
          "type": "uint256"
        },
        {
          "internalType": "uint256",
          "name": "secondHighestBid",
          "type": "uint256"
        },
        {
          "internalType": "uint256",
          "name": "totalCommits",
          "type": "uint256"
        },
        {
          "internalType": "uint256",
          "name": "totalReveals",
          "type": "uint256"
        },
        {
          "internalType": "bool",
          "name": "finalized",
          "type": "bool"
        }
      ],
      "stateMutability": "view",
      "type": "function"
    },
    {
      "inputs": [
        {
          "internalType": "uint256",
          "name": "_auctionId",
          "type": "uint256"
        },
        {
          "internalType": "bytes32",
          "name": "_commitHash",
          "type": "bytes32"
        }
      ],
      "name": "commitBid",
      "outputs": [],
      "stateMutability": "payable",
      "type": "function"
    },
    {
      "inputs": [
        {
          "internalType": "uint256",
          "name": "",
          "type": "uint256"
        },
        {
          "internalType": "address",
          "name": "",
          "type": "address"
        }
      ],
      "name": "commits",
      "outputs": [
        {
          "internalType": "bytes32",
          "name": "hash",
          "type": "bytes32"
        },
        {
          "internalType": "uint256",
          "name": "deposit",
          "type": "uint256"
        },
        {
          "internalType": "bool",
          "name": "revealed",
          "type": "bool"
        },
        {
          "internalType": "uint256",
          "name": "revealedAmount",
          "type": "uint256"
        },
        {
          "internalType": "uint256",
          "name": "revealTimestamp",
          "type": "uint256"
        }
      ],
      "stateMutability": "view",
      "type": "function"
    },
    {
      "inputs": [
        {
          "internalType": "uint256",
          "name": "_bidAmount",
          "type": "uint256"
        },
        {
          "internalType": "bytes32",
          "name": "_secret",
          "type": "bytes32"
        }
      ],
      "name": "computeCommitHash",
      "outputs": [
        {
          "internalType": "bytes32",
          "name": "",
          "type": "bytes32"
        }
      ],
      "stateMutability": "pure",
      "type": "function"
    },
    {
      "inputs": [
        {
          "internalType": "string",
          "name": "_title",
          "type": "string"
        },
        {
          "internalType": "string",
          "name": "_description",
          "type": "string"
        },
        {
          "internalType": "string",
          "name": "_assetType",
          "type": "string"
        },
        {
          "internalType": "uint256",
          "name": "_minBid",
          "type": "uint256"
        },
        {
          "internalType": "uint256",
          "name": "_commitDuration",
          "type": "uint256"
        },
        {
          "internalType": "uint256",
          "name": "_revealDuration",
          "type": "uint256"
        },
        {
          "internalType": "uint256",
          "name": "_antiSnipeSeconds",
          "type": "uint256"
        }
      ],
      "name": "createAuction",
      "outputs": [
        {
          "internalType": "uint256",
          "name": "",
          "type": "uint256"
        }
      ],
      "stateMutability": "nonpayable",
      "type": "function"
    },
    {
      "inputs": [
        {
          "internalType": "uint256",
          "name": "_auctionId",
          "type": "uint256"
        }
      ],
      "name": "finalizeAuction",
      "outputs": [],
      "stateMutability": "nonpayable",
      "type": "function"
    },
    {
      "inputs": [
        {
          "internalType": "uint256",
          "name": "_auctionId",
          "type": "uint256"
        }
      ],
      "name": "getAuction",
      "outputs": [
        {
          "components": [
            {
              "internalType": "uint256",
              "name": "id",
              "type": "uint256"
            },
            {
              "internalType": "address",
              "name": "creator",
              "type": "address"
            },
            {
              "internalType": "string",
              "name": "title",
              "type": "string"
            },
            {
              "internalType": "string",
              "name": "description",
              "type": "string"
            },
            {
              "internalType": "string",
              "name": "assetType",
              "type": "string"
            },
            {
              "internalType": "uint256",
              "name": "minBid",
              "type": "uint256"
            },
            {
              "internalType": "uint256",
              "name": "commitDeadline",
              "type": "uint256"
            },
            {
              "internalType": "uint256",
              "name": "revealDeadline",
              "type": "uint256"
            },
            {
              "internalType": "uint256",
              "name": "antiSnipeExtension",
              "type": "uint256"
            },
            {
              "internalType": "enum SealedBidAuction.AuctionPhase",
              "name": "phase",
              "type": "uint8"
            },
            {
              "internalType": "address",
              "name": "winner",
              "type": "address"
            },
            {
              "internalType": "uint256",
              "name": "winningBid",
              "type": "uint256"
            },
            {
              "internalType": "uint256",
              "name": "secondHighestBid",
              "type": "uint256"
            },
            {
              "internalType": "uint256",
              "name": "totalCommits",
              "type": "uint256"
            },
            {
              "internalType": "uint256",
              "name": "totalReveals",
              "type": "uint256"
            },
            {
              "internalType": "bool",
              "name": "finalized",
              "type": "bool"
            }
          ],
          "internalType": "struct SealedBidAuction.Auction",
          "name": "",
          "type": "tuple"
        }
      ],
      "stateMutability": "view",
      "type": "function"
    },
    {
      "inputs": [
        {
          "internalType": "uint256",
          "name": "_auctionId",
          "type": "uint256"
        }
      ],
      "name": "getAuctionBidders",
      "outputs": [
        {
          "internalType": "address[]",
          "name": "",
          "type": "address[]"
        }
      ],
      "stateMutability": "view",
      "type": "function"
    },
    {
      "inputs": [],
      "name": "getAuctionCount",
      "outputs": [
        {
          "internalType": "uint256",
          "name": "",
          "type": "uint256"
        }
      ],
      "stateMutability": "view",
      "type": "function"
    },
    {
      "inputs": [
        {
          "internalType": "uint256",
          "name": "_auctionId",
          "type": "uint256"
        },
        {
          "internalType": "address",
          "name": "_bidder",
          "type": "address"
        }
      ],
      "name": "getCommit",
      "outputs": [
        {
          "components": [
            {
              "internalType": "bytes32",
              "name": "hash",
              "type": "bytes32"
            },
            {
              "internalType": "uint256",
              "name": "deposit",
              "type": "uint256"
            },
            {
              "internalType": "bool",
              "name": "revealed",
              "type": "bool"
            },
            {
              "internalType": "uint256",
              "name": "revealedAmount",
              "type": "uint256"
            },
            {
              "internalType": "uint256",
              "name": "revealTimestamp",
              "type": "uint256"
            }
          ],
          "internalType": "struct SealedBidAuction.Commit",
          "name": "",
          "type": "tuple"
        }
      ],
      "stateMutability": "view",
      "type": "function"
    },
    {
      "inputs": [
        {
          "internalType": "uint256",
          "name": "_auctionId",
          "type": "uint256"
        }
      ],
      "name": "getCurrentPhase",
      "outputs": [
        {
          "internalType": "string",
          "name": "",
          "type": "string"
        }
      ],
      "stateMutability": "view",
      "type": "function"
    },
    {
      "inputs": [
        {
          "internalType": "address",
          "name": "_user",
          "type": "address"
        }
      ],
      "name": "getPendingWithdrawal",
      "outputs": [
        {
          "internalType": "uint256",
          "name": "",
          "type": "uint256"
        }
      ],
      "stateMutability": "view",
      "type": "function"
    },
    {
      "inputs": [],
      "name": "nextAuctionId",
      "outputs": [
        {
          "internalType": "uint256",
          "name": "",
          "type": "uint256"
        }
      ],
      "stateMutability": "view",
      "type": "function"
    },
    {
      "inputs": [],
      "name": "owner",
      "outputs": [
        {
          "internalType": "address",
          "name": "",
          "type": "address"
        }
      ],
      "stateMutability": "view",
      "type": "function"
    },
    {
      "inputs": [],
      "name": "pause",
      "outputs": [],
      "stateMutability": "nonpayable",
      "type": "function"
    },
    {
      "inputs": [],
      "name": "paused",
      "outputs": [
        {
          "internalType": "bool",
          "name": "",
          "type": "bool"
        }
      ],
      "stateMutability": "view",
      "type": "function"
    },
    {
      "inputs": [
        {
          "internalType": "address",
          "name": "",
          "type": "address"
        }
      ],
      "name": "pendingWithdrawals",
      "outputs": [
        {
          "internalType": "uint256",
          "name": "",
          "type": "uint256"
        }
      ],
      "stateMutability": "view",
      "type": "function"
    },
    {
      "inputs": [
        {
          "internalType": "uint256",
          "name": "_auctionId",
          "type": "uint256"
        },
        {
          "internalType": "uint256",
          "name": "_bidAmount",
          "type": "uint256"
        },
        {
          "internalType": "bytes32",
          "name": "_secret",
          "type": "bytes32"
        }
      ],
      "name": "revealBid",
      "outputs": [],
      "stateMutability": "nonpayable",
      "type": "function"
    },
    {
      "inputs": [
        {
          "internalType": "address",
          "name": "_newOwner",
          "type": "address"
        }
      ],
      "name": "transferOwnership",
      "outputs": [],
      "stateMutability": "nonpayable",
      "type": "function"
    },
    {
      "inputs": [],
      "name": "unpause",
      "outputs": [],
      "stateMutability": "nonpayable",
      "type": "function"
    },
    {
      "inputs": [],
      "name": "withdraw",
      "outputs": [],
      "stateMutability": "nonpayable",
      "type": "function"
    }
  ],
  "bytecode": "0x6080806040523461003257600080546001600160a81b0319163360ff60a01b191617815560015561205590816100388239f35b600080fdfe6080604052600436101561001257600080fd5b60003560e01c80630f715f1d14611b405780633ccfd60b14611a2f5780633f4ba83a146119d55780634d380a0d14611593578063571a26a014611459578063572e85ec146114155780635c975abb146113ef57806378bd7935146111615780637ee8b2f8146101315780638456cb59146110ff578063885d68a8146110865780638da5cb5b1461105d5780639468cb6114610da15780639d730b131461066c5780639eb3d2fb14610635578063c44e66401461010e578063df2764691461057d578063e8083863146102bd578063f2f56ffe146101ed578063f2fde38b1461016b578063f3f43703146101315763fc5284821461010e57600080fd5b3461012c57600036600319011261012c576020600154604051908152f35b600080fd5b3461012c57602036600319011261012c576001600160a01b03610152611d7a565b1660005260056020526020604060002054604051908152f35b3461012c57602036600319011261012c57610184611d7a565b600054906001600160a01b039061019e3383851614611e04565b169081156101b6576001600160a01b03191617600055005b60405162461bcd60e51b815260206004820152600f60248201526e496e76616c6964206164647265737360881b6044820152606490fd5b3461012c57604036600319011261012c57610206611d90565b6000608060405161021681611c16565b8281528260208201528260408201528260608201520152600435600052600360205260406000209060018060a01b031660005260205260a0604060002060405161025f81611c16565b81549182825260018101546020830190815260ff600283015416906040840191151582526080600460038501549460608701958652015494019384526040519485525160208501525115156040840152516060830152516080820152f35b3461012c5760208060031936011261012c5760043560ff906102e760ff60005460a01c1615611e3c565b6001916102f683548310611e7d565b8160005260029060028552604060002091600783015442111561053f57600e83019283549360ff85166105065786979187918260ff19809816179055866009820160038098825416179081815560018060a01b039485809360081c168015156000146104cb57836040937fe9ba83469fc8ee4260dd274fd43b5a54f2df813ad21c4637d53084d1f3866b379584600a948960005260038d5287600020816000528d526103b988600020600b8d01548015156000146104be579889915b0154611ef4565b908161049f575b50508901541660005260058a52846000206103dc858254611ee7565b90555460081c1695015490825191825287820152a35b85600052600482526040600020936000975b61040a57005b845488101561049d578880988860005287855260406000208461042d838a611b92565b9054908b1b1c1660005285526040600020828488830154161580610491575b61045a575b50500197610404565b6000910180548661046b858c611b92565b9054908d1b1c1683526005885261048760408420918254611ee7565b9055558b82610451565b5080820154151561044c565b005b60005260058d526104b588600020918254611ee7565b905538806103c0565b50878d01549889916103b2565b50505050600091507fe9ba83469fc8ee4260dd274fd43b5a54f2df813ad21c4637d53084d1f3866b37604080518481528487820152a36103f2565b60405162461bcd60e51b8152600481018990526011602482015270105b1c9958591e48199a5b985b1a5e9959607a1b6044820152606490fd5b60405162461bcd60e51b815260048101879052601660248201527514995d99585b081c1a185cd9481b9bdd08195b99195960521b6044820152606490fd5b3461012c5760208060031936011261012c5760043560005260048152604060002060405190818382549182815201908192600052846000209060005b868282106106185786866105cf82880383611c67565b604051928392818401908285525180915260408401929160005b8281106105f857505050500390f35b83516001600160a01b0316855286955093810193928101926001016105e9565b83546001600160a01b0316855290930192600192830192016105b9565b3461012c57602061064536611da6565b6040519083820192835260408201526040815261066181611c31565b519020604051908152f35b3461012c5760e036600319011261012c576004356001600160401b03811161012c5761069c903690600401611dbc565b906024356001600160401b03811161012c576106bc903690600401611dbc565b9290916044356001600160401b03811161012c576106de903690600401611dbc565b90926106f260ff60005460a01c1615611e3c565b603c60843510610d6357603c60a43510610d255760643515610cea576001549461071b86611ec2565b60015561072a60843542611ee7565b9461076861073a60a43588611ee7565b92604051996107488b611bfa565b898b523360208c015261075c36878a611fc7565b60408c01523691611fc7565b6060890152610778368583611fc7565b608089015260643560a08901528560c08901528160e089015260c435610100890152600161012089015260006101408901526000610160890152600061018089015260006101a089015260006101c089015260006101e08901528660005260026020526040600020908851825560018060a01b0360208a0151166bffffffffffffffffffffffff60a01b60018401541617600183015560408901518051906001600160401b038211610b345781906108336002860154611bc0565b601f8111610c97575b50602090601f8311600114610c2557600092610c1a575b50508160011b916000199060031b1c19161760028301555b60608901518051906001600160401b038211610b345781906108906003860154611bc0565b601f8111610bc7575b50602090601f8311600114610b5557600092610b4a575b50508160011b916000199060031b1c19161760038301555b60808901518051906001600160401b038211610b345781906108ed6004860154611bc0565b601f8111610ae1575b50602090601f8311600114610a6f57600092610a64575b50508160011b916000199060031b1c19161760048301555b60a0890151600583015560c0890151600683015560e089015160078301556101008901516008830155610120890151946004861015610a4e576009830180546101408c01516001600160a81b031990911660ff9889161760089190911b610100600160a81b03161790556101608a0151600a8401556101808a0151600b8401556101a08a0151600c8401556101c08a0151600d8401556101e090990151600e909201805492151590951660ff19929092169190911790935560209686947fa68ef5b5ff1b03c22b0c89cee060cf196d5b9cf4715b2956d8b6872235f5600a94610a2d929091610a20906040519660a0885260a0880191611ffe565b918583038b870152611ffe565b946064356040840152606083015260808201528033940390a3604051908152f35b634e487b7160e01b600052602160045260246000fd5b015190508b8061090d565b9250600485016000526020600020906000935b601f1984168510610ac6576001945083601f19811610610aad575b505050811b016004830155610925565b015160001960f88460031b161c191690558b8080610a9d565b81810151835560209485019460019093019290910190610a82565b909150600485016000526020600020601f840160051c810160208510610b2d575b90849392915b601f830160051c82018110610b1e5750506108f6565b60008155859450600101610b08565b5080610b02565b634e487b7160e01b600052604160045260246000fd5b015190508b806108b0565b9250600385016000526020600020906000935b601f1984168510610bac576001945083601f19811610610b93575b505050811b0160038301556108c8565b015160001960f88460031b161c191690558b8080610b83565b81810151835560209485019460019093019290910190610b68565b909150600385016000526020600020601f840160051c810160208510610c13575b90849392915b601f830160051c82018110610c04575050610899565b60008155859450600101610bee565b5080610be8565b015190508b80610853565b9250600285016000526020600020906000935b601f1984168510610c7c576001945083601f19811610610c63575b505050811b01600283015561086b565b015160001960f88460031b161c191690558b8080610c53565b81810151835560209485019460019093019290910190610c38565b909150600285016000526020600020601f840160051c810160208510610ce3575b90849392915b601f830160051c82018110610cd457505061083c565b60008155859450600101610cbe565b5080610cb8565b60405162461bcd60e51b815260206004820152601360248201527204d696e20626964206d757374206265203e203606c1b6044820152606490fd5b60405162461bcd60e51b815260206004820152601660248201527514995d99585b081c1a185cd9481d1bdbc81cda1bdc9d60521b6044820152606490fd5b60405162461bcd60e51b815260206004820152601660248201527510dbdb5b5a5d081c1a185cd9481d1bdbc81cda1bdc9d60521b6044820152606490fd5b610daa36611da6565b90610dbd60ff60005460a01c1615611e3c565b610dca6001548210611e7d565b8060005260206002815260406000206006810154421161102357600981019060ff8254166004811015610a4e576001811490811561101a575b5015610fdf5760058101543410610f9a5783600052600383526040600020336000528352604060002054610f6157604051610e3d81611c16565b85815260048482013481526040830160008152610e9f6060850191600083526080860193600085528a60005260038a526040600020336000528a52604060002096518755516001870155511515600286019060ff801983541691151516179055565b51600384015551910155836000526004835260406000209081549168010000000000000000831015610b345782610edd916001600c95018155611b92565b81546001600160a01b0360039290921b91821b19163390911b179055018054610f0590611ec2565b9055805460ff81166004811015610a4e5715610f51575b505060405192835234908301527fac0361642c7caf4d76d0e2dfbe38804253aedd43a560146470da108817ceb40560403393a3005b60ff191660011790558380610f1c565b60405162461bcd60e51b8152600481018490526011602482015270105b1c9958591e4818dbdb5b5a5d1d1959607a1b6044820152606490fd5b60405162461bcd60e51b815260048101849052601960248201527f4465706f7369742062656c6f77206d696e696d756d20626964000000000000006044820152606490fd5b60405162461bcd60e51b81526004810184905260136024820152724e6f7420696e20636f6d6d697420706861736560681b6044820152606490fd5b90501586610e03565b60405162461bcd60e51b815260048101839052601260248201527110dbdb5b5a5d081c1a185cd948195b99195960721b6044820152606490fd5b3461012c57600036600319011261012c576000546040516001600160a01b039091168152602090f35b3461012c57604036600319011261012c5761109f611d90565b600435600052600360205260406000209060018060a01b031660005260205260a0604060002080549060018101549060ff600282015416600460038301549201549260405194855260208501521515604084015260608301526080820152f35b3461012c57600036600319011261012c57600054611127336001600160a01b03831614611e04565b60ff60a01b1916600160a01b17600090815533907f62e78cea01bee320cd4e420270b5ea74000d11b0c9f74754ebdbfc544b05a2589080a2005b3461012c57602036600319011261012c5760043560006101e060405161118681611bfa565b82815282602082015260606040820152606080820152606060808201528260a08201528260c08201528260e08201528261010082015282610120820152826101408201528261016082015282610180820152826101a0820152826101c082015201526111f56001548210611e7d565b600052600260205260406000206040519061120f82611bfa565b8054825260018101546001600160a01b0316602083015261123260028201611c88565b604083015261124360038201611c88565b606083015261125460048201611c88565b6080830152600581015460a0830152600681015460c0830152600781015460e083015260088101546101008301526009810154600460ff82161015610a4e5760ff918183600e931661012086015260018060a01b039060081c16610140850152600a810154610160850152600b810154610180850152600c8101546101a0850152600d8101546101c085015201541615156101e08201526040518091602082528051602083015260018060a01b0360208201511660408301526101e061135f61132e60408401516102006060870152610220860190611d2d565b61134a606085015191601f199283888303016080890152611d2d565b906080850151908683030160a0870152611d2d565b9160a081015160c085015260c081015160e085015260e081015161010085015261010081015161012085015261139f610120820151610140860190611d6d565b60018060a01b03610140820151166101608501526101608101516101808501526101808101516101a08501526101a08101516101c08501526101c081015182850152015115156102008301520390f35b3461012c57600036600319011261012c57602060ff60005460a01c166040519015158152f35b3461012c57602036600319011261012c5761145561144160043561143c6001548210611e7d565b611f01565b604051918291602083526020830190611d2d565b0390f35b3461012c57602036600319011261012c5760043560005260026020526040600020805490600160a01b60019003600182015416906002810161149a90611c88565b6114a660038301611c88565b916114b360048201611c88565b92600582015493600683015460078401546008850154600986015491600a87015493600b88015495600c89015497600d8a015499600e015460ff169a6040519e8f9e8f9061020092825260208201528160408201520161151291611d2d565b8d810360608f015261152391611d2d565b8c810360808e015261153491611d2d565b9960a08c015260c08b015260e08a0152610100890152610120880160ff82169061155d91611d6d565b60081c6001600160a01b03166101408801526101608701526101808601526101a08501526101c084015215156101e08301520390f35b3461012c57606036600319011261012c576004356024908135916044906115c260ff60005460a01c1615611e3c565b6115cf6001548410611e7d565b8260005260209160028352604060002090600384526040600020336000528452604060002090600683015442111561199a5760078301938454421161196357825492831561192e576002810180549360ff85166118f95760058701548b106118c35760018301958b875410611888576040518a8101908d8252833560408201526040815261165c81611c31565b519020036118465750600160ff19809516179055886003820155600442910155600d840161168a8154611ec2565b9055600984019182549160ff8316906004821015611832575093879694936008938a979360017f86d2fbc9069d34216ebc65b38ce840528d3f8cac0c86d2aaa7ab6a9db8bc35d39b9714611825575b50508a600a8401805482116000146117d7578054600b86015555805461172c9250841c6001600160a01b03168061179f575b508054610100600160a81b0319163360081b610100600160a81b0316179055565b0154918215158061178b575b61174c575b505050506040519384523393a3005b6117787ffc67c3c4ed742dbc67b83af687e5aad503989794d43c608ae56fcd1654dbf9ca938254611ee7565b809155604051908152a28285828161173d565b506078611799428354611ef4565b10611738565b87600052600386526040600020906000528552600160406000200154600586526117cf6040600020918254611ee7565b90558b61170b565b509050600b83018054821160001461180a57555433600052600584526118036040600020918254611ee7565b905561172c565b50505433600052600584526118036040600020918254611ee7565b1660021781558b806116d9565b634e487b7160e01b60009081526021600452fd5b887f48617368206d69736d61746368202d20696e76616c69642072657665616c0000606492601e876040519462461bcd60e51b86526004860152840152820152fd5b60405162461bcd60e51b8152600481018b90526015818701527411195c1bdcda5d081b195cdcc81d1a185b88189a59605a1b81840152606490fd5b88704269642062656c6f77206d696e696d756d60781b6064926011876040519462461bcd60e51b86526004860152840152820152fd5b886f105b1c9958591e481c995d99585b195960821b6064926010876040519462461bcd60e51b86526004860152840152820152fd5b60405162461bcd60e51b815260048101889052600f818401526e139bc818dbdb5b5a5d08199bdd5b99608a1b81850152606490fd5b7114995d99585b081c1a185cd948195b99195960721b606492601288936040519462461bcd60e51b86526004860152840152820152fd5b847510dbdb5b5a5d081c1a185cd9481b9bdd08195b99195960521b6064926016876040519462461bcd60e51b86526004860152840152820152fd5b3461012c57600036600319011261012c576000546119fd336001600160a01b03831614611e04565b60ff60a01b1916600055337f5db9ee0a495bf2e6ff9c91a7834c1ba4fdd244a5e8aa4e537bd38aeae4b073aa600080a2005b3461012c57600036600319011261012c5733600052602060058152604060002054908115611b0657336000526005815260006040812055600080808085335af13d15611b01573d611a7f81611de9565b90611a8d6040519283611c67565b81526000833d92013e5b15611ac9577f7fcf532c15f0a6db0bd6d0e038bea71d30d808c7d98cb3bf7268a95bf5081b65906040519283523392a2005b6064906040519062461bcd60e51b82526004820152601160248201527015da5d1a191c985dd85b0819985a5b1959607a1b6044820152fd5b611a97565b6064906040519062461bcd60e51b8252600482015260136024820152724e6f7468696e6720746f20776974686472617760681b6044820152fd5b3461012c57604036600319011261012c5760243560043560005260046020526040600020805482101561012c57602091611b7991611b92565b905460405160039290921b1c6001600160a01b03168152f35b8054821015611baa5760005260206000200190600090565b634e487b7160e01b600052603260045260246000fd5b90600182811c92168015611bf0575b6020831014611bda57565b634e487b7160e01b600052602260045260246000fd5b91607f1691611bcf565b61020081019081106001600160401b03821117610b3457604052565b60a081019081106001600160401b03821117610b3457604052565b606081019081106001600160401b03821117610b3457604052565b604081019081106001600160401b03821117610b3457604052565b90601f801991011681019081106001600160401b03821117610b3457604052565b90604051918260008254611c9b81611bc0565b90818452602094600191600181169081600014611d0b5750600114611ccc575b505050611cca92500383611c67565b565b600090815285812095935091905b818310611cf3575050611cca9350820101388080611cbb565b85548884018501529485019487945091830191611cda565b92505050611cca94925060ff191682840152151560051b820101388080611cbb565b919082519283825260005b848110611d59575050826000602080949584010152601f8019910116010190565b602081830181015184830182015201611d38565b906004821015610a4e5752565b600435906001600160a01b038216820361012c57565b602435906001600160a01b038216820361012c57565b604090600319011261012c576004359060243590565b9181601f8401121561012c578235916001600160401b03831161012c576020838186019501011161012c57565b6001600160401b038111610b3457601f01601f191660200190565b15611e0b57565b60405162461bcd60e51b81526020600482015260096024820152682737ba1037bbb732b960b91b6044820152606490fd5b15611e4357565b60405162461bcd60e51b815260206004820152601260248201527110dbdb9d1c9858dd081a5cc81c185d5cd95960721b6044820152606490fd5b15611e8457565b60405162461bcd60e51b8152602060048201526016602482015275105d58dd1a5bdb88191bd95cc81b9bdd08195e1a5cdd60521b6044820152606490fd5b6000198114611ed15760010190565b634e487b7160e01b600052601160045260246000fd5b91908201809211611ed157565b91908203918211611ed157565b6000526002602052604060002060ff600e82015416611fa5576006810154421115611f825760070154421115611f6057604051611f3d81611c4c565b60138152722832b73234b733a334b730b634bd30ba34b7b760691b602082015290565b604051611f6c81611c4c565b600681526514995d99585b60d21b602082015290565b50604051611f8f81611c4c565b600681526510dbdb5b5a5d60d21b602082015290565b50604051611fb281611c4c565b6005815264115b99195960da1b602082015290565b929192611fd382611de9565b91611fe16040519384611c67565b82948184528183011161012c578281602093846000960137010152565b908060209392818452848401376000828201840152601f01601f191601019056fea26469706673582212202e37510d8dc1be41a71a8436ea7f15af27f01acef142512ce3c328b75ab19e2b64736f6c63430008180033",
  "linkReferences": {},
  "deployedLinkReferences": {}
}